{
  "address": "0xff4b46A875EEE275dE683f231fc603dd136192D5",
  "abi": [
    {
      "inputs": [],
      "stateMutability": "payable",
      "type": "constructor"
    },
    {
      "inputs": [],
      "name": "getTrait",
      "outputs": [
        {
          "internalType": "string",
          "name": "",
          "type": "string"
        }
      ],
      "stateMutability": "pure",
      "type": "function"
    },
    {
      "inputs": [
        {
          "internalType": "address",
          "name": "_user",
          "type": "address"
        },
        {
          "internalType": "bytes",
          "name": "_data",
          "type": "bytes"
        }
      ],
      "name": "register",
      "outputs": [],
      "stateMutability": "view",
      "type": "function"
    },
    {
      "inputs": [
        {
          "internalType": "address",
          "name": "_maci",
          "type": "address"
        }
      ],
      "name": "setMaciInstance",
      "outputs": [],
      "stateMutability": "nonpayable",
      "type": "function"
    }
  ],
  "transactionHash": "0x33b1915537ab24919360efe607cb43c9139882994914b9c2aa713fd673ee6c11",
  "args": [],
  "numDeployments": 1,
  "solcInputHash": "78cc46043e41c3f17b198a83253a93e8",
  "bytecode": "0x60808060405261030090816100128239f3fe6080604081815260048036101561001557600080fd5b600092833560e01c90816313e65cf31461025657816324b8fbf6146100ea575063cea9a2631461004457600080fd5b346100e657826003193601126100e6578151908282019082821067ffffffffffffffff8311176100d357508252600d81526020906c2220a7a3b0ba32b5b2b2b832b960991b8282015282519382859384528251928382860152825b8481106100bd57505050828201840152601f01601f19168101030190f35b818101830151888201880152879550820161009f565b634e487b7160e01b855260419052602484fd5b8280fd5b9192905034610252578060031936011261025257610106610277565b90602491823567ffffffffffffffff8082116102345736602383011215610234578187013590811161024057602095610148601f8301601f1916880182610292565b81815288878201933688858301011161023c578389948986930187378301015280518101031261023857516001600160a01b03808216929183900361023457848692855194859384926370a0823160e01b8452168a8301525afa90811561022a5786916101f9575b50156101ba578480f35b5162461bcd60e51b81529283018290528201527f44414f476174656b65657065723a207573657220686173206e6f20746f6b656e604482015260649150fd5b90508381813d8311610223575b6102108183610292565b8101031261021f5751386101b0565b8580fd5b503d610206565b82513d88823e3d90fd5b8780fd5b8680fd5b5080fd5b634e487b7160e01b8852604187528488fd5b8380fd5b843461027457602036600319011261027457610270610277565b5080f35b80fd5b600435906001600160a01b038216820361028d57565b600080fd5b90601f8019910116810190811067ffffffffffffffff8211176102b457604052565b634e487b7160e01b600052604160045260246000fdfea26469706673582212202db56ecae15174a97354a2a31121ffe7a9ee3255a960b7bb96cbc1f4d298100964736f6c63430008140033",
  "devdoc": {
    "kind": "dev",
    "methods": {
      "getTrait()": {
        "returns": {
          "_0": "The type of the gatekeeper"
        }
      },
      "register(address,bytes)": {
        "params": {
          "_data": "additional data",
          "_user": "The address of the user"
        }
      },
      "setMaciInstance(address)": {
        "params": {
          "_maci": "The MACI contract interface to be stored"
        }
      }
    },
    "version": 1
  },
  "userdoc": {
    "kind": "user",
    "methods": {
      "constructor": {
        "notice": "Create a new instance of the gatekeeper"
      },
      "getTrait()": {
        "notice": "Get the trait of the gatekeeper"
      },
      "register(address,bytes)": {
        "notice": "Registers the user"
      },
      "setMaciInstance(address)": {
        "notice": "Adds an uninitialised MACI instance to allow for token signups"
      }
    },
    "version": 1
  },
  "storageLayout": {
    "storage": [],
    "types": null
  }
}