{
  "address": "0xB2A2e825087a97D552FbD9F917343b24Cb19CD11",
  "abi": [
    {
      "inputs": [
        {
          "internalType": "contract IPollFactory",
          "name": "_pollFactory",
          "type": "address"
        },
        {
          "internalType": "contract IMessageProcessorFactory",
          "name": "_messageProcessorFactory",
          "type": "address"
        },
        {
          "internalType": "contract ITallyFactory",
          "name": "_tallyFactory",
          "type": "address"
        },
        {
          "internalType": "contract SignUpGatekeeper",
          "name": "_signUpGatekeeper",
          "type": "address"
        },
        {
          "internalType": "contract InitialVoiceCreditProxy",
          "name": "_initialVoiceCreditProxy",
          "type": "address"
        },
        {
          "internalType": "uint8",
          "name": "_stateTreeDepth",
          "type": "uint8"
        },
        {
          "internalType": "uint256[5]",
          "name": "_emptyBallotRoots",
          "type": "uint256[5]"
        }
      ],
      "stateMutability": "nonpayable",
      "type": "constructor"
    },
    {
      "inputs": [],
      "name": "DefaultZeroBadIndex",
      "type": "error"
    },
    {
      "inputs": [],
      "name": "DepthTooLarge",
      "type": "error"
    },
    {
      "inputs": [],
      "name": "InvalidMessage",
      "type": "error"
    },
    {
      "inputs": [],
      "name": "InvalidPubKey",
      "type": "error"
    },
    {
      "inputs": [],
      "name": "NumberOfLeavesCannotBeZero",
      "type": "error"
    },
    {
      "inputs": [
        {
          "internalType": "address",
          "name": "owner",
          "type": "address"
        }
      ],
      "name": "OwnableInvalidOwner",
      "type": "error"
    },
    {
      "inputs": [
        {
          "internalType": "address",
          "name": "account",
          "type": "address"
        }
      ],
      "name": "OwnableUnauthorizedAccount",
      "type": "error"
    },
    {
      "inputs": [
        {
          "internalType": "address",
          "name": "_poll",
          "type": "address"
        }
      ],
      "name": "PollAddressDoesNotExist",
      "type": "error"
    },
    {
      "inputs": [
        {
          "internalType": "uint256",
          "name": "pollId",
          "type": "uint256"
        }
      ],
      "name": "PollDoesNotExist",
      "type": "error"
    },
    {
      "inputs": [],
      "name": "PoseidonHashLibrariesNotLinked",
      "type": "error"
    },
    {
      "inputs": [],
      "name": "PubKeyAlreadyRegistered",
      "type": "error"
    },
    {
      "inputs": [],
      "name": "TooManySignups",
      "type": "error"
    },
    {
      "anonymous": false,
      "inputs": [
        {
          "indexed": false,
          "internalType": "uint256",
          "name": "_pollId",
          "type": "uint256"
        },
        {
          "indexed": true,
          "internalType": "uint256",
          "name": "_coordinatorPubKeyX",
          "type": "uint256"
        },
        {
          "indexed": true,
          "internalType": "uint256",
          "name": "_coordinatorPubKeyY",
          "type": "uint256"
        },
        {
          "indexed": false,
          "internalType": "enum DomainObjs.Mode",
          "name": "_mode",
          "type": "uint8"
        }
      ],
      "name": "DeployPoll",
      "type": "event"
    },
    {
      "anonymous": false,
      "inputs": [
        {
          "indexed": true,
          "internalType": "address",
          "name": "previousOwner",
          "type": "address"
        },
        {
          "indexed": true,
          "internalType": "address",
          "name": "newOwner",
          "type": "address"
        }
      ],
      "name": "OwnershipTransferred",
      "type": "event"
    },
    {
      "anonymous": false,
      "inputs": [
        {
          "indexed": true,
          "internalType": "uint256",
          "name": "pollId",
          "type": "uint256"
        },
        {
          "indexed": true,
          "internalType": "address",
          "name": "creator",
          "type": "address"
        },
        {
          "components": [
            {
              "internalType": "address",
              "name": "poll",
              "type": "address"
            },
            {
              "internalType": "address",
              "name": "messageProcessor",
              "type": "address"
            },
            {
              "internalType": "address",
              "name": "tally",
              "type": "address"
            }
          ],
          "indexed": false,
          "internalType": "struct MACI.PollContracts",
          "name": "pollContracts",
          "type": "tuple"
        },
        {
          "indexed": false,
          "internalType": "string",
          "name": "name",
          "type": "string"
        },
        {
          "indexed": false,
          "internalType": "string[]",
          "name": "options",
          "type": "string[]"
        },
        {
          "indexed": false,
          "internalType": "string",
          "name": "metadata",
          "type": "string"
        },
        {
          "indexed": false,
          "internalType": "uint256",
          "name": "startTime",
          "type": "uint256"
        },
        {
          "indexed": false,
          "internalType": "uint256",
          "name": "endTime",
          "type": "uint256"
        }
      ],
      "name": "PollCreated",
      "type": "event"
    },
    {
      "anonymous": false,
      "inputs": [
        {
          "indexed": true,
          "internalType": "uint256",
          "name": "pollId",
          "type": "uint256"
        },
        {
          "indexed": false,
          "internalType": "string",
          "name": "tallyJsonCID",
          "type": "string"
        }
      ],
      "name": "PollTallyCIDUpdated",
      "type": "event"
    },
    {
      "anonymous": false,
      "inputs": [
        {
          "indexed": false,
          "internalType": "uint256",
          "name": "_stateIndex",
          "type": "uint256"
        },
        {
          "indexed": true,
          "internalType": "uint256",
          "name": "_userPubKeyX",
          "type": "uint256"
        },
        {
          "indexed": true,
          "internalType": "uint256",
          "name": "_userPubKeyY",
          "type": "uint256"
        },
        {
          "indexed": false,
          "internalType": "uint256",
          "name": "_voiceCreditBalance",
          "type": "uint256"
        },
        {
          "indexed": false,
          "internalType": "uint256",
          "name": "_timestamp",
          "type": "uint256"
        }
      ],
      "name": "SignUp",
      "type": "event"
    },
    {
      "inputs": [],
      "name": "MESSAGE_DATA_LENGTH",
      "outputs": [
        {
          "internalType": "uint8",
          "name": "",
          "type": "uint8"
        }
      ],
      "stateMutability": "view",
      "type": "function"
    },
    {
      "inputs": [],
      "name": "coordinatorPubKey",
      "outputs": [
        {
          "internalType": "uint256",
          "name": "x",
          "type": "uint256"
        },
        {
          "internalType": "uint256",
          "name": "y",
          "type": "uint256"
        }
      ],
      "stateMutability": "view",
      "type": "function"
    },
    {
      "inputs": [
        {
          "internalType": "string",
          "name": "_name",
          "type": "string"
        },
        {
          "internalType": "string[]",
          "name": "_options",
          "type": "string[]"
        },
        {
          "internalType": "string",
          "name": "_metadata",
          "type": "string"
        },
        {
          "internalType": "uint256",
          "name": "_duration",
          "type": "uint256"
        },
        {
          "internalType": "enum DomainObjs.Mode",
          "name": "isQv",
          "type": "uint8"
        },
        {
          "internalType": "uint256",
          "name": "daoId",
          "type": "uint256"
        }
      ],
      "name": "createPoll",
      "outputs": [],
      "stateMutability": "nonpayable",
      "type": "function"
    },
    {
      "inputs": [
        {
          "internalType": "uint256",
          "name": "",
          "type": "uint256"
        },
        {
          "internalType": "uint256",
          "name": "",
          "type": "uint256"
        }
      ],
      "name": "daoIdtoPolls",
      "outputs": [
        {
          "internalType": "uint256",
          "name": "",
          "type": "uint256"
        }
      ],
      "stateMutability": "view",
      "type": "function"
    },
    {
      "inputs": [
        {
          "internalType": "uint256",
          "name": "_duration",
          "type": "uint256"
        },
        {
          "components": [
            {
              "internalType": "uint8",
              "name": "intStateTreeDepth",
              "type": "uint8"
            },
            {
              "internalType": "uint8",
              "name": "messageTreeSubDepth",
              "type": "uint8"
            },
            {
              "internalType": "uint8",
              "name": "messageTreeDepth",
              "type": "uint8"
            },
            {
              "internalType": "uint8",
              "name": "voteOptionTreeDepth",
              "type": "uint8"
            }
          ],
          "internalType": "struct Params.TreeDepths",
          "name": "_treeDepths",
          "type": "tuple"
        },
        {
          "components": [
            {
              "internalType": "uint256",
              "name": "x",
              "type": "uint256"
            },
            {
              "internalType": "uint256",
              "name": "y",
              "type": "uint256"
            }
          ],
          "internalType": "struct DomainObjs.PubKey",
          "name": "_coordinatorPubKey",
          "type": "tuple"
        },
        {
          "internalType": "address",
          "name": "_verifier",
          "type": "address"
        },
        {
          "internalType": "address",
          "name": "_vkRegistry",
          "type": "address"
        },
        {
          "internalType": "enum DomainObjs.Mode",
          "name": "_mode",
          "type": "uint8"
        }
      ],
      "name": "deployPoll",
      "outputs": [],
      "stateMutability": "nonpayable",
      "type": "function"
    },
    {
      "inputs": [
        {
          "internalType": "uint256",
          "name": "",
          "type": "uint256"
        }
      ],
      "name": "emptyBallotRoots",
      "outputs": [
        {
          "internalType": "uint256",
          "name": "",
          "type": "uint256"
        }
      ],
      "stateMutability": "view",
      "type": "function"
    },
    {
      "inputs": [
        {
          "internalType": "uint256",
          "name": "_pollId",
          "type": "uint256"
        }
      ],
      "name": "fetchPoll",
      "outputs": [
        {
          "components": [
            {
              "internalType": "uint256",
              "name": "id",
              "type": "uint256"
            },
            {
              "internalType": "string",
              "name": "name",
              "type": "string"
            },
            {
              "internalType": "bytes",
              "name": "encodedOptions",
              "type": "bytes"
            },
            {
              "internalType": "string",
              "name": "metadata",
              "type": "string"
            },
            {
              "components": [
                {
                  "internalType": "address",
                  "name": "poll",
                  "type": "address"
                },
                {
                  "internalType": "address",
                  "name": "messageProcessor",
                  "type": "address"
                },
                {
                  "internalType": "address",
                  "name": "tally",
                  "type": "address"
                }
              ],
              "internalType": "struct MACI.PollContracts",
              "name": "pollContracts",
              "type": "tuple"
            },
            {
              "internalType": "uint256",
              "name": "startTime",
              "type": "uint256"
            },
            {
              "internalType": "uint256",
              "name": "endTime",
              "type": "uint256"
            },
            {
              "internalType": "uint256",
              "name": "numOfOptions",
              "type": "uint256"
            },
            {
              "internalType": "string[]",
              "name": "options",
              "type": "string[]"
            },
            {
              "internalType": "string",
              "name": "tallyJsonCID",
              "type": "string"
            }
          ],
          "internalType": "struct MACIWrapper.PollData",
          "name": "poll_",
          "type": "tuple"
        }
      ],
      "stateMutability": "view",
      "type": "function"
    },
    {
      "inputs": [
        {
          "internalType": "uint256",
          "name": "_page",
          "type": "uint256"
        },
        {
          "internalType": "uint256",
          "name": "_perPage",
          "type": "uint256"
        },
        {
          "internalType": "bool",
          "name": "_ascending",
          "type": "bool"
        }
      ],
      "name": "fetchPolls",
      "outputs": [
        {
          "components": [
            {
              "internalType": "uint256",
              "name": "id",
              "type": "uint256"
            },
            {
              "internalType": "string",
              "name": "name",
              "type": "string"
            },
            {
              "internalType": "bytes",
              "name": "encodedOptions",
              "type": "bytes"
            },
            {
              "internalType": "string",
              "name": "metadata",
              "type": "string"
            },
            {
              "components": [
                {
                  "internalType": "address",
                  "name": "poll",
                  "type": "address"
                },
                {
                  "internalType": "address",
                  "name": "messageProcessor",
                  "type": "address"
                },
                {
                  "internalType": "address",
                  "name": "tally",
                  "type": "address"
                }
              ],
              "internalType": "struct MACI.PollContracts",
              "name": "pollContracts",
              "type": "tuple"
            },
            {
              "internalType": "uint256",
              "name": "startTime",
              "type": "uint256"
            },
            {
              "internalType": "uint256",
              "name": "endTime",
              "type": "uint256"
            },
            {
              "internalType": "uint256",
              "name": "numOfOptions",
              "type": "uint256"
            },
            {
              "internalType": "string[]",
              "name": "options",
              "type": "string[]"
            },
            {
              "internalType": "string",
              "name": "tallyJsonCID",
              "type": "string"
            }
          ],
          "internalType": "struct MACIWrapper.PollData[]",
          "name": "polls_",
          "type": "tuple[]"
        }
      ],
      "stateMutability": "view",
      "type": "function"
    },
    {
      "inputs": [
        {
          "internalType": "uint256",
          "name": "_pollId",
          "type": "uint256"
        }
      ],
      "name": "getPoll",
      "outputs": [
        {
          "components": [
            {
              "internalType": "address",
              "name": "poll",
              "type": "address"
            },
            {
              "internalType": "address",
              "name": "messageProcessor",
              "type": "address"
            },
            {
              "internalType": "address",
              "name": "tally",
              "type": "address"
            }
          ],
          "internalType": "struct MACI.PollContracts",
          "name": "pollContracts",
          "type": "tuple"
        }
      ],
      "stateMutability": "view",
      "type": "function"
    },
    {
      "inputs": [
        {
          "internalType": "address",
          "name": "_poll",
          "type": "address"
        }
      ],
      "name": "getPollId",
      "outputs": [
        {
          "internalType": "uint256",
          "name": "pollId",
          "type": "uint256"
        }
      ],
      "stateMutability": "view",
      "type": "function"
    },
    {
      "inputs": [],
      "name": "getStateTreeRoot",
      "outputs": [
        {
          "internalType": "uint256",
          "name": "root",
          "type": "uint256"
        }
      ],
      "stateMutability": "view",
      "type": "function"
    },
    {
      "inputs": [
        {
          "internalType": "uint256[2]",
          "name": "array",
          "type": "uint256[2]"
        }
      ],
      "name": "hash2",
      "outputs": [
        {
          "internalType": "uint256",
          "name": "result",
          "type": "uint256"
        }
      ],
      "stateMutability": "pure",
      "type": "function"
    },
    {
      "inputs": [
        {
          "internalType": "uint256[3]",
          "name": "array",
          "type": "uint256[3]"
        }
      ],
      "name": "hash3",
      "outputs": [
        {
          "internalType": "uint256",
          "name": "result",
          "type": "uint256"
        }
      ],
      "stateMutability": "pure",
      "type": "function"
    },
    {
      "inputs": [
        {
          "internalType": "uint256[4]",
          "name": "array",
          "type": "uint256[4]"
        }
      ],
      "name": "hash4",
      "outputs": [
        {
          "internalType": "uint256",
          "name": "result",
          "type": "uint256"
        }
      ],
      "stateMutability": "pure",
      "type": "function"
    },
    {
      "inputs": [
        {
          "internalType": "uint256[5]",
          "name": "array",
          "type": "uint256[5]"
        }
      ],
      "name": "hash5",
      "outputs": [
        {
          "internalType": "uint256",
          "name": "result",
          "type": "uint256"
        }
      ],
      "stateMutability": "pure",
      "type": "function"
    },
    {
      "inputs": [
        {
          "internalType": "uint256",
          "name": "left",
          "type": "uint256"
        },
        {
          "internalType": "uint256",
          "name": "right",
          "type": "uint256"
        }
      ],
      "name": "hashLeftRight",
      "outputs": [
        {
          "internalType": "uint256",
          "name": "result",
          "type": "uint256"
        }
      ],
      "stateMutability": "pure",
      "type": "function"
    },
    {
      "inputs": [
        {
          "components": [
            {
              "internalType": "uint256[10]",
              "name": "data",
              "type": "uint256[10]"
            }
          ],
          "internalType": "struct DomainObjs.Message",
          "name": "_message",
          "type": "tuple"
        },
        {
          "components": [
            {
              "internalType": "uint256",
              "name": "x",
              "type": "uint256"
            },
            {
              "internalType": "uint256",
              "name": "y",
              "type": "uint256"
            }
          ],
          "internalType": "struct DomainObjs.PubKey",
          "name": "_encPubKey",
          "type": "tuple"
        }
      ],
      "name": "hashMessageAndEncPubKey",
      "outputs": [
        {
          "internalType": "uint256",
          "name": "msgHash",
          "type": "uint256"
        }
      ],
      "stateMutability": "pure",
      "type": "function"
    },
    {
      "inputs": [
        {
          "components": [
            {
              "components": [
                {
                  "internalType": "uint256",
                  "name": "x",
                  "type": "uint256"
                },
                {
                  "internalType": "uint256",
                  "name": "y",
                  "type": "uint256"
                }
              ],
              "internalType": "struct DomainObjs.PubKey",
              "name": "pubKey",
              "type": "tuple"
            },
            {
              "internalType": "uint256",
              "name": "voiceCreditBalance",
              "type": "uint256"
            },
            {
              "internalType": "uint256",
              "name": "timestamp",
              "type": "uint256"
            }
          ],
          "internalType": "struct DomainObjs.StateLeaf",
          "name": "_stateLeaf",
          "type": "tuple"
        }
      ],
      "name": "hashStateLeaf",
      "outputs": [
        {
          "internalType": "uint256",
          "name": "ciphertext",
          "type": "uint256"
        }
      ],
      "stateMutability": "pure",
      "type": "function"
    },
    {
      "inputs": [],
      "name": "initialVoiceCreditProxy",
      "outputs": [
        {
          "internalType": "contract InitialVoiceCreditProxy",
          "name": "",
          "type": "address"
        }
      ],
      "stateMutability": "view",
      "type": "function"
    },
    {
      "inputs": [
        {
          "internalType": "uint256",
          "name": "",
          "type": "uint256"
        },
        {
          "internalType": "uint256",
          "name": "",
          "type": "uint256"
        }
      ],
      "name": "isPublicKeyRegistered",
      "outputs": [
        {
          "internalType": "bool",
          "name": "",
          "type": "bool"
        }
      ],
      "stateMutability": "view",
      "type": "function"
    },
    {
      "inputs": [],
      "name": "lazyIMTData",
      "outputs": [
        {
          "internalType": "uint40",
          "name": "maxIndex",
          "type": "uint40"
        },
        {
          "internalType": "uint40",
          "name": "numberOfLeaves",
          "type": "uint40"
        }
      ],
      "stateMutability": "view",
      "type": "function"
    },
    {
      "inputs": [],
      "name": "maxSignups",
      "outputs": [
        {
          "internalType": "uint256",
          "name": "",
          "type": "uint256"
        }
      ],
      "stateMutability": "view",
      "type": "function"
    },
    {
      "inputs": [],
      "name": "messageProcessorFactory",
      "outputs": [
        {
          "internalType": "contract IMessageProcessorFactory",
          "name": "",
          "type": "address"
        }
      ],
      "stateMutability": "view",
      "type": "function"
    },
    {
      "inputs": [],
      "name": "nextPollId",
      "outputs": [
        {
          "internalType": "uint256",
          "name": "",
          "type": "uint256"
        }
      ],
      "stateMutability": "view",
      "type": "function"
    },
    {
      "inputs": [],
      "name": "numSignUps",
      "outputs": [
        {
          "internalType": "uint256",
          "name": "signUps",
          "type": "uint256"
        }
      ],
      "stateMutability": "view",
      "type": "function"
    },
    {
      "inputs": [],
      "name": "owner",
      "outputs": [
        {
          "internalType": "address",
          "name": "",
          "type": "address"
        }
      ],
      "stateMutability": "view",
      "type": "function"
    },
    {
      "inputs": [
        {
          "internalType": "uint256[2]",
          "name": "dataToPad",
          "type": "uint256[2]"
        }
      ],
      "name": "padAndHashMessage",
      "outputs": [
        {
          "components": [
            {
              "internalType": "uint256[10]",
              "name": "data",
              "type": "uint256[10]"
            }
          ],
          "internalType": "struct DomainObjs.Message",
          "name": "message",
          "type": "tuple"
        },
        {
          "components": [
            {
              "internalType": "uint256",
              "name": "x",
              "type": "uint256"
            },
            {
              "internalType": "uint256",
              "name": "y",
              "type": "uint256"
            }
          ],
          "internalType": "struct DomainObjs.PubKey",
          "name": "padKey",
          "type": "tuple"
        },
        {
          "internalType": "uint256",
          "name": "msgHash",
          "type": "uint256"
        }
      ],
      "stateMutability": "pure",
      "type": "function"
    },
    {
      "inputs": [],
      "name": "pollFactory",
      "outputs": [
        {
          "internalType": "contract IPollFactory",
          "name": "",
          "type": "address"
        }
      ],
      "stateMutability": "view",
      "type": "function"
    },
    {
      "inputs": [
        {
          "internalType": "address",
          "name": "",
          "type": "address"
        }
      ],
      "name": "pollIds",
      "outputs": [
        {
          "internalType": "uint256",
          "name": "",
          "type": "uint256"
        }
      ],
      "stateMutability": "view",
      "type": "function"
    },
    {
      "inputs": [
        {
          "internalType": "uint256",
          "name": "",
          "type": "uint256"
        }
      ],
      "name": "polls",
      "outputs": [
        {
          "internalType": "address",
          "name": "poll",
          "type": "address"
        },
        {
          "internalType": "address",
          "name": "messageProcessor",
          "type": "address"
        },
        {
          "internalType": "address",
          "name": "tally",
          "type": "address"
        }
      ],
      "stateMutability": "view",
      "type": "function"
    },
    {
      "inputs": [],
      "name": "renounceOwnership",
      "outputs": [],
      "stateMutability": "nonpayable",
      "type": "function"
    },
    {
      "inputs": [
        {
          "components": [
            {
              "internalType": "uint8",
              "name": "intStateTreeDepth",
              "type": "uint8"
            },
            {
              "internalType": "uint8",
              "name": "messageTreeSubDepth",
              "type": "uint8"
            },
            {
              "internalType": "uint8",
              "name": "messageTreeDepth",
              "type": "uint8"
            },
            {
              "internalType": "uint8",
              "name": "voteOptionTreeDepth",
              "type": "uint8"
            }
          ],
          "internalType": "struct Params.TreeDepths",
          "name": "_treeDepths",
          "type": "tuple"
        },
        {
          "components": [
            {
              "internalType": "uint256",
              "name": "x",
              "type": "uint256"
            },
            {
              "internalType": "uint256",
              "name": "y",
              "type": "uint256"
            }
          ],
          "internalType": "struct DomainObjs.PubKey",
          "name": "_coordinatorPubKey",
          "type": "tuple"
        },
        {
          "internalType": "address",
          "name": "_verifier",
          "type": "address"
        },
        {
          "internalType": "address",
          "name": "_vkRegistry",
          "type": "address"
        }
      ],
      "name": "setConfig",
      "outputs": [],
      "stateMutability": "nonpayable",
      "type": "function"
    },
    {
      "inputs": [
        {
          "internalType": "uint256[]",
          "name": "array",
          "type": "uint256[]"
        }
      ],
      "name": "sha256Hash",
      "outputs": [
        {
          "internalType": "uint256",
          "name": "result",
          "type": "uint256"
        }
      ],
      "stateMutability": "pure",
      "type": "function"
    },
    {
      "inputs": [
        {
          "components": [
            {
              "internalType": "uint256",
              "name": "x",
              "type": "uint256"
            },
            {
              "internalType": "uint256",
              "name": "y",
              "type": "uint256"
            }
          ],
          "internalType": "struct DomainObjs.PubKey",
          "name": "_pubKey",
          "type": "tuple"
        },
        {
          "internalType": "bytes",
          "name": "_signUpGatekeeperData",
          "type": "bytes"
        },
        {
          "internalType": "bytes",
          "name": "_initialVoiceCreditProxyData",
          "type": "bytes"
        }
      ],
      "name": "signUp",
      "outputs": [],
      "stateMutability": "nonpayable",
      "type": "function"
    },
    {
      "inputs": [],
      "name": "signUpGatekeeper",
      "outputs": [
        {
          "internalType": "contract SignUpGatekeeper",
          "name": "",
          "type": "address"
        }
      ],
      "stateMutability": "view",
      "type": "function"
    },
    {
      "inputs": [],
      "name": "stateTreeDepth",
      "outputs": [
        {
          "internalType": "uint8",
          "name": "",
          "type": "uint8"
        }
      ],
      "stateMutability": "view",
      "type": "function"
    },
    {
      "inputs": [],
      "name": "tallyFactory",
      "outputs": [
        {
          "internalType": "contract ITallyFactory",
          "name": "",
          "type": "address"
        }
      ],
      "stateMutability": "view",
      "type": "function"
    },
    {
      "inputs": [
        {
          "internalType": "address",
          "name": "newOwner",
          "type": "address"
        }
      ],
      "name": "transferOwnership",
      "outputs": [],
      "stateMutability": "nonpayable",
      "type": "function"
    },
    {
      "inputs": [],
      "name": "treeDepths",
      "outputs": [
        {
          "internalType": "uint8",
          "name": "intStateTreeDepth",
          "type": "uint8"
        },
        {
          "internalType": "uint8",
          "name": "messageTreeSubDepth",
          "type": "uint8"
        },
        {
          "internalType": "uint8",
          "name": "messageTreeDepth",
          "type": "uint8"
        },
        {
          "internalType": "uint8",
          "name": "voteOptionTreeDepth",
          "type": "uint8"
        }
      ],
      "stateMutability": "view",
      "type": "function"
    },
    {
      "inputs": [
        {
          "internalType": "uint256",
          "name": "_pollId",
          "type": "uint256"
        },
        {
          "internalType": "string",
          "name": "_tallyJsonCID",
          "type": "string"
        }
      ],
      "name": "updatePollTallyCID",
      "outputs": [],
      "stateMutability": "nonpayable",
      "type": "function"
    },
    {
      "inputs": [],
      "name": "verifier",
      "outputs": [
        {
          "internalType": "address",
          "name": "",
          "type": "address"
        }
      ],
      "stateMutability": "view",
      "type": "function"
    },
    {
      "inputs": [],
      "name": "vkRegistry",
      "outputs": [
        {
          "internalType": "address",
          "name": "",
          "type": "address"
        }
      ],
      "stateMutability": "view",
      "type": "function"
    }
  ],
  "transactionHash": "0xa74cc6fe88cfeb5454a2773fbd9d2002481640306bc338685c9f57c61f0f42e9",
  "args": [
    "0x2e652Fc5808C45Eedd92F7eA2B321f23666Fa1c6",
    "0x7B3372f17DCA2dd7C728D06F036F91FAaf338287",
    "0x920974FAF2EAADc2b2eEC98fa95b00edd87e9870",
    "0xff4b46A875EEE275dE683f231fc603dd136192D5",
    "0x5de12f55B17ac66aF1b234863776dB6586b7e666",
    10,
    [
      "16015576667038038422103932363190100635991292382181099511410843174865570503661",
      "166510078825589460025300915201657086611944528317298994959376081297530246971",
      "10057734083972610459557695472359628128485394923403014377687504571662791937025",
      "4904828619307091008204672239231377290495002626534171783829482835985709082773",
      "18694062287284245784028624966421731916526814537891066525886866373016385890569"
    ]
  ],
  "numDeployments": 1,
  "solcInputHash": "a389c85162a6e320dfc734f9b861de10",
  "bytecode": "0x6101608060405234620004d25762003f12803803809162000021828562000509565b83398101610160918281830312620004d2578051906001600160a01b038083168303620004d2576020820151938185168503620004d2576040830151928284168403620004d2576060810151908382168203620004d2576080810151928484168403620004d25760a08201519860ff8a168a03620004d2578160df84011215620004d2576040519260a084016001600160401b03811185821017620004d75760405283918101928311620004d25760c001905b828210620004c157505050602060ff891611620004af57600160ff89161b6000198101908111620002c55764ffffffffff1660018060501b031960075416179764ffffffffff8960281c1697600189019964ffffffffff8b11620002c55760288b901b69ffffffffff00000000001617600755889760007f0ef71f46e11a513c599eed9dd03576c33439bcfb1cee155316f90541e41649ba5b64ffffffffff620001978c6200019160ff861664ff000000008760201b1662000594565b6200057a565b1660005260086020528060406000205560018b1615620002db5760001964ffffffffff8c160164ffffffffff8111620002c5576200023391620001ee6020926200019160ff871664ff0000000088871b1662000594565b9064ffffffffff604051926200020484620004ed565b1660005260088352604060002054825282820152604051809381926314d2f97b60e11b8352600483016200054a565b038173143D3817bD9480486B88F0f367CDa1B764DD021b5af4908115620002b95760009162000279575b5060019a8b1c647fffffffff169a9190910160ff16906200016d565b906020823d602011620002b0575b81620002966020938362000509565b81010312620002ad57505164ffffffffff6200025d565b80fd5b3d915062000287565b6040513d6000823e3d90fd5b634e487b7160e01b600052601160045260246000fd5b505060c05260e0526101009586526101209283526101409384526080819052620003089060ff166200052d565b60a05260005b600581106200049c5750506200035260206040516200032d81620004ed565b60018152600182820152604051809381926314d2f97b60e11b8352600483016200054a565b038173143D3817bD9480486B88F0f367CDa1B764DD021b5af4908115620002b95760009162000464575b501562000452573315620004395760098054336001600160a01b03198216811790925560405194167f8be0079c531659141344cd1fd0a4f28419497f9722a3daafe3b4186f6b6457e0600080a36139659384620005ad85396080518461130f015260a0518481816103bf01526119c4015260c0518481816117680152612a7e015260e051848181611fd80152612af401525183818161146a0152612b6a015251828181611a0e0152611f950152518181816106930152611a920152f35b604051631e4fbdf760e01b815260006004820152602490fd5b604051633d7ba68560e21b8152600490fd5b906020823d60201162000493575b81620004816020938362000509565b81010312620002ad575051856200037c565b3d915062000472565b600190602083519301928155016200030e565b604051633e104c7760e01b8152600490fd5b8151815260209182019101620000d4565b600080fd5b634e487b7160e01b600052604160045260246000fd5b604081019081106001600160401b03821117620004d757604052565b601f909101601f19168101906001600160401b03821190821017620004d757604052565b8015620005445760ff8111620002c5576001901b90565b50600190565b6040810192916000915b600283106200056257505050565b60019082518152602080910192019201919062000554565b91909164ffffffffff80809416911601918211620002c557565b64ffffffffff9182169082160391908211620002c55756fe60c080604052600436101561001357600080fd5b600090813560e01c908163055575eb14611fc457508063079410db14611f7f5780631096c30e14611f28578063122db15314611f0057806313fb893214611ed75780631a8cbcaa14611e555780631b6ef3c514611dc95780632b78657114611dab5780632b7ac3f314611d8257806331e766a514611d5d5780633364120a146119345780633364c4c814611797578063343393b5146117525780633dfb88b2146116fa578063423f3e191461167e57806346e47f9a1461161757806358bfc379146114f85780635bb93995146114c757806362a361bb1461149957806362b31f1e1461145457806364e0ece114611333578063652c76e4146112f5578063683f3dc3146112d95780636b4575e214611206578063715018a6146111a85780637d0a81c8146111665780638a2a3dfb146110ca5780638da5cb5b146110a15780639391fc0c146107225780639cfced97146106c2578063aab4a6701461067d578063ac2f00741461062e578063ac98e5df146105ec578063b2d8f81e146105ac578063b68687201461057c578063b87802c81461054e578063bea140b31461044d578063c8cf9ab214610414578063d7a71b9a146103e2578063df82635a146103a7578063edbfe83f1461027c5763f2fde38b146101ef57600080fd5b3461027957602036600319011261027957610208612331565b6102106123b8565b6001600160a01b0390811690811561026057600954826001600160601b0360a01b821617600955167f8be0079c531659141344cd1fd0a4f28419497f9722a3daafe3b4186f6b6457e0600080a380f35b604051631e4fbdf760e01b815260048101849052602490fd5b80fd5b5034610279576040366003190112610279573660231215610279576102a0366122f9565b6040516102ac816121b5565b6040516102b8816121eb565b610140918236833752604051906102ce8261219a565b8382528360208093015281604051936102e6856121eb565b8236863780518552015182840152604051906103018261219a565b7f171e826ad4a870fd925e0bf0e87884e70e080879c2205ef10114f28a3b6f6dd78252828201917f2bd407d897fbbca9f88adfd2d15252e69de8c1564eb4d3d27162e259172f1a1d835260405194610358866121b5565b85526103648186613871565b6040519551969094865b600a8310610392575050506101a09550519084015251610160830152610180820152f35b81806001928b5181520199019201919761036e565b503461027957806003193601126102795760206040517f00000000000000000000000000000000000000000000000000000000000000008152f35b50346102795760ff60406020926103f836612374565b9082526012855282822090825284522054166040519015158152f35b5034610279576020366003190112610279576020906040906001600160a01b0361043c612331565b168152601083522054604051908152f35b5034610279576060366003190112610279573660231215610279576040519061047582612169565b60648236821161050b576004905b82821061053e5750506040516304b98e1d60e31b81529283908390600483015b600383106105245750505060209181738eA23f75Fc42a171a0eBa5b60b6d90bd128E087b5af490811561051857906104e1575b602090604051908152f35b506020813d8211610510575b816104fa60209383612222565b8101031261050b57602090516104d6565b600080fd5b3d91506104ed565b604051903d90823e3d90fd5b8151815286935060019290920191602091820191016104a3565b8135815260209182019101610483565b50346102795760203660031901126102795760043560058110156105785760209054604051908152f35b5080fd5b5034610279578060031936011261027957604060075481519064ffffffffff90818116835260281c166020820152f35b5034610279576105bb36612374565b919081526011602052604081209081548310156102795760206105de848461238a565b90546040519160031b1c8152f35b50346102795780600319360112610279576080600b5460ff604051918181168352818160081c166020840152818160101c16604084015260181c166060820152f35b5034610279576020366003190112610279576040606091600435815260066020522060018060a01b03908181541691600281600184015416920154169060405192835260208301526040820152f35b50346102795780600319360112610279576040517f00000000000000000000000000000000000000000000000000000000000000006001600160a01b03168152602090f35b50346102795760a0366003190112610279573660231215610279576040516106e981612207565b60a48136821161050b576020926004905b838210610713578461070b84612e61565b604051908152f35b813581529084019084016106fa565b50346102795760c0366003190112610279576004356001600160401b038111610578576107539036906004016122cc565b906001600160401b036024351161109d5736602360243501121561109d576001600160401b03602435600401351161109d5736602480356004013560051b813501011161109d576044356001600160401b038111611099576107b99036906004016122cc565b919060026084351015611095576005549260a4358652601160205260408620805490600160401b82101561108157906107f79160018201815561238a565b815460001960039290921b91821b19169086901b179055600e54600f546040516108819290916001600160a01b039081169116610833836121d0565b60ff600b548181168552818160081c166020860152818160101c16604086015260181c1660608401526040516108688161219a565b600c548152600d546020820152608435936064356129c2565b8386526006602052610895604087206123e4565b9260018060a01b0384511687526010602052846040882055604051956020808801526108e1876108d36040820160243560040135602480350161243d565b03601f198101895288612222565b6108ed606435426124c6565b96604051906108fb826121eb565b87825261090936848661226b565b6020830152604082015261091e36858761226b565b60608201528560808201524260a08201528760c08201526024356004013560e08201526109506024356004013561235d565b61095d6040519182612222565b602480356004810135835201602082015b602480356004013560051b81350101821061103b575050610100820152604051610997816121b5565b898152610120820152868952600a60205260408920908051825560208101518051906001600160401b038211610eb95781906109e3826109da60018801546124d3565b60018801612524565b602090601f8311600114610fcc578d92610fc1575b50508160011b916000199060031b1c19161760018301555b60408101518051906001600160401b038211610eb9578190610a4282610a3960028801546124d3565b60028801612524565b602090601f8311600114610f52578d92610f47575b50508160011b916000199060031b1c19161760028301555b60608101518051906001600160401b038211610eb9578190610aa182610a9860038801546124d3565b60038801612524565b602090601f8311600114610ed8578d92610ecd575b50508160011b916000199060031b1c19161760038301555b608081015180516004840180546001600160a01b03199081166001600160a01b039384161790915560208301516005860180548316918416919091179055604090920151600685018054909316911617905560a0810151600783015560c0810151600883015560e08101516009830155610100810151805190600160401b8211610eb957600a84015482600a860155808310610e3e575b50602001600a84018c5260208c208c915b838310610d49575050505061012001518051906001600160401b038211610d3557610bb182610ba8600b8601546124d3565b600b8601612524565b6020908b601f8411600114610c975793600b84610c50957f7532e9985b123ef8bda3bc40b1a4296f34238889a58a41de23df560b8bfb9bc69c9b9995610c779b9995610c699992610c8c575b50508160011b916000199060031b1c1916179101555b6040805189516001600160a01b0390811682526020808c01518216908301529982015190991690890152610100606089015261010088019161241c565b858103608087015260243560040135602480350161243d565b9184830360a086015261241c565b934260c083015260e08201528033940390a380f35b015190503880610bfd565b5090600b84018c5260208c20918c5b601f1985168110610d1d575093600b6001857f7532e9985b123ef8bda3bc40b1a4296f34238889a58a41de23df560b8bfb9bc69c9b9995610c779b9995610c6999610c5099601f19811610610d04575b505050811b01910155610c13565b015160001960f88460031b161c19169055388080610cf6565b91926020600181928685015181550194019201610ca6565b634e487b7160e01b8b52604160045260248bfd5b80518051906001600160401b038211610e29578f90610d7283610d6c87546124d3565b87612524565b602091601f8411600114610dbc57928060209360019693879692610db1575b5050600019600383901b1c191690841b1785555b01920192019190610b76565b015190503880610d91565b919085835260208320925b601f1985168110610e11575083602093600196938796938794601f19811610610df8575b505050811b018555610da5565b015160001960f88460031b161c19169055388080610deb565b91926020600181928685015181550194019201610dc7565b50634e487b7160e01b8f52604160045260248ffd5b600a85018d5260208d20908382018e5b8284018210610e5f57505050610b65565b90600191610e6d82546124d3565b80610e7c575b5050018e610e4e565b601f81118414610e94575050600081555b8f38610e73565b828252610eaf601f60208420920160051c820185830161250d565b6000835555610e8d565b634e487b7160e01b8c52604160045260248cfd5b015190503880610ab6565b9250600385018d5260208d20908d935b601f1984168510610f2c576001945083601f19811610610f13575b505050811b016003830155610ace565b015160001960f88460031b161c19169055388080610f03565b81810151835560209485019460019093019290910190610ee8565b015190503880610a57565b9250600285018d5260208d20908d935b601f1984168510610fa6576001945083601f19811610610f8d575b505050811b016002830155610a6f565b015160001960f88460031b161c19169055388080610f7d565b81810151835560209485019460019093019290910190610f62565b0151905038806109f8565b9250600185018d5260208d20908d935b601f1984168510611020576001945083601f19811610611007575b505050811b016001830155610a10565b015160001960f88460031b161c19169055388080610ff7565b81810151835560209485019460019093019290910190610fdc565b81356001600160401b03811161107d57602435013660438201121561107d576020916110728392369060446024820135910161226b565b81520191019061096e565b8c80fd5b634e487b7160e01b88526041600452602488fd5b8480fd5b8380fd5b8280fd5b50346102795780600319360112610279576009546040516001600160a01b039091168152602090f35b50346102795736600319016101808112610578576101401361027957604051906110f3826121b5565b366023121561027957506040519061110a826121eb565b816101449236841161050b576004905b848210611156575050815260403661014319011261050b5760209161070b91604051916111468361219a565b3582526101643584830152613871565b813581526020918201910161111a565b503461027957608036600319011261027957602061070b60405161118981612169565b61119236612243565b8152604435838201526064356040820152613835565b50346102795780600319360112610279576111c16123b8565b600980546001600160a01b031981169091556000906001600160a01b03167f8be0079c531659141344cd1fd0a4f28419497f9722a3daafe3b4186f6b6457e08280a380f35b50346102795761014036600319011261027957608036602319011261050b57604051611231816121d0565b60243560ff8116810361050b57815260443560ff8116810361050b57602082015260643560ff8116810361050b57604082015260843560ff8116810361050b57606082015260403660a319011261050b5760405161128e8161219a565b60a435815260c43560208201526112a3612347565b61010435906001600160a01b038216820361050b57610124359260028410156112d5576112d2946004356129c2565b80f35b8580fd5b50346102795780600319360112610279576020604051600a8152f35b5034610279578060031936011261027957602060405160ff7f0000000000000000000000000000000000000000000000000000000000000000168152f35b503461027957366003190161010081126105785760801361050b5760405161135a816121d0565b60043560ff8116810361050b5781526024359060ff8216820361050b57602081019182526044359060ff8216820361050b57604081019182526064359260ff8416840361050b5760608201938452604036608319011261050b576040516113c08161219a565b6084358152602081019160a435835260c4359560018060a01b039586881680980361050b5760ff6113ef612347565b966113f86123b8565b511663ff00000062ff000061ff00600b54965160081b16935160101b16935160181b169363ffffffff191617171717600b5551600c5551600d556001600160601b0360a01b9283600e541617600e551690600f541617600f5580f35b50346102795780600319360112610279576040517f00000000000000000000000000000000000000000000000000000000000000006001600160a01b03168152602090f35b503461027957604036600319011261027957366023121561027957602061070b6114c2366122f9565b612d74565b503461027957602061070b6114db36612374565b604051916114e88361219a565b6040368437825283820152612d74565b50346102795760209081600319360112610279576004356001600160401b03811161057857366023820112156105785780600401356115368161235d565b916115446040519384612222565b8183528483016024819360051b830101913683116112d55791869394916024879401905b82821061160557505050604051838101809251909590845b8181106115ec575050506115a2816115b394959603601f198101835282612222565b604051928392839251928391612007565b8101039060025afa15610518577f30644e72e131a029b85045b68181585d2833e84879b9709143e1f593f0000001905106604051908152f35b8251885296860196899689965090920191600101611580565b81358152879450908501908501611568565b5034610279576020366003190112610279576001600160a01b03611639612331565b16808252601060205260408220546005541115611666578160409160209352601083522054604051908152f35b6024906040519063e64d908d60e01b82526004820152fd5b503461027957806003193601126102795764ffffffffff908160075460281c16906001809381945b6116b7575b602061070b8686612f0f565b90919360ff80821691858486851b1610156116f2575081146116de578201939190816116a6565b634e487b7160e01b85526011600452602485fd5b9550506116ab565b503461027957608036600319011261027957366023121561027957604051611721816121d0565b60848136821161050b576020926004905b838210611743578461070b84612df9565b81358152908401908401611732565b50346102795780600319360112610279576040517f00000000000000000000000000000000000000000000000000000000000000006001600160a01b03168152602090f35b5034610279576040366003190112610279576004356001600160401b03602435818111611099576117cc9036906004016122cc565b91906117d66123b8565b60055484101561191b57838552602091600a8352600b60408720019084116119075761180c8461180683546124d3565b83612524565b85601f851160011461187f579161186e91857f2cd30b9efd64638f847bef681e87dfbb567e261d02660c8166a92f33729ab33e9695948991611874575b508560011b906000198760031b1c19161790555b60405193838594855284019161241c565b0390a280f35b905082013538611849565b81875283872090601f198616885b8181106118f057509161186e9391877f2cd30b9efd64638f847bef681e87dfbb567e261d02660c8166a92f33729ab33e98979694106118d6575b5050600185811b01905561185d565b830135600019600388901b60f8161c1916905538806118c7565b91928660018192868901358155019401920161188d565b634e487b7160e01b86526041600452602486fd5b60405163a86ecdd560e01b815260048101859052602490fd5b5034610279576080806003193601126105785761195036612243565b6001600160401b039190604435838111611095576119729036906004016122b1565b926064358181116112d55761198b9036906004016122b1565b91805186526020926012845260408720908483019182518952855260ff865260ff604089205416611d4b576007549364ffffffffff94857f00000000000000000000000000000000000000000000000000000000000000009160281c161015611d39576119fb8451845190612cd5565b15611d27576001600160a01b03978991907f00000000000000000000000000000000000000000000000000000000000000008a1690813b15611099578391611a5a9160405195868094819363125c7dfb60e11b83523360048401612930565b03925af18015611c3357611d01575b50508490611a8e9697604051808099819463b36543a960e01b83523360048401612930565b03917f0000000000000000000000000000000000000000000000000000000000000000165afa948515611cf6578795611cc7575b50611ae5604051611ad281612169565b8381528686820152426040820152613835565b9460075495848760281c169660018801868111611cb15769ffffffffff0000000000906028999596991b169069ffffffffff0000000000191617600755928860a05273143D3817bD9480486B88F0f367CDa1B764DD021b935b85611b6285611b5d8c5160a0511664ff0000000060a0518d1b16612969565b612ec8565b168a526008908188528060408c20556001851615611c3e57611bce918891611b94611b8c88612952565b60a051612ee1565b918d8a60405194611ba48661219a565b169052835260408d2054825282820152604051809381926314d2f97b60e11b835260048301612d46565b0381885af48015611c33578a90611c01575b647fffffffff91509360011c16968851600160a051011660a0529692611b3e565b508681813d8311611c2c575b611c178183612222565b8101031261050b57647fffffffff9051611be0565b503d611c0d565b6040513d8c823e3d90fd5b8a83898b8a887fd3c3cd829e4e37d5baaf10abace26b24e0046e20500c999380410f807edfcda06060611c778460075460281c16612952565b8551938851956040519216825287820152426040820152a35183526012815260408320915183525260408120600160ff1982541617905580f35b634e487b7160e01b600052601160045260246000fd5b9094508381813d8311611cef575b611cdf8183612222565b8101031261050b57519338611ac2565b503d611cd5565b6040513d89823e3d90fd5b8111611d135760405280611a8e611a69565b634e487b7160e01b89526041600452602489fd5b6040516379fae7af60e01b8152600490fd5b60405163b984588b60e01b8152600490fd5b604051632e13e04560e01b8152600490fd5b50346102795780600319360112610279576040600c54600d5482519182526020820152f35b5034610279578060031936011261027957600e546040516001600160a01b039091168152602090f35b50346102795780600319360112610279576020600554604051908152f35b503461027957606036600319011261027957604435801515810361057857611df6906024356004356127d6565b60405190602092838301848452825180915260408401948060408360051b870101940192955b828710611e295785850386f35b909192938280611e45600193603f198a8203018652885161204f565b9601920196019592919092611e1c565b503461027957602036600319011261027957600435611e72612578565b50600554811015611ebf57604082611e9392606094526006602052206123e4565b6040805182516001600160a01b0390811682526020808501518216908301529282015190921690820152f35b6024906040519063a86ecdd560e01b82526004820152fd5b5034610279578060031936011261027957600f546040516001600160a01b039091168152602090f35b5034610279578060031936011261027957602064ffffffffff60075460281c16604051908152f35b503461027957602036600319011261027957600435611f45612597565b50600554811015611ebf57604082611f6792611f7b9452600a602052206126b3565b60405191829160208352602083019061204f565b0390f35b50346102795780600319360112610279576040517f00000000000000000000000000000000000000000000000000000000000000006001600160a01b03168152602090f35b9050346105785781600319360112610578577f00000000000000000000000000000000000000000000000000000000000000006001600160a01b03168152602090f35b60005b83811061201a5750506000910152565b818101518382015260200161200a565b9060209161204381518092818552858086019101612007565b601f01601f1916010190565b91908251815260209061209961208761207584870151610180808787015285019061202a565b6040870151848203604086015261202a565b6060860151838203606085015261202a565b60808086015180516001600160a01b03908116928501929092526020810151821660a0850152604001511660c08301529360a081015160e083015260c081015190610100918284015260e08101519161012092838501528101519383870361014085015284518088528188019180808360051b8b01019701926000905b83821061213c57505050505061213994955001519061016081840391015261202a565b90565b9091929397838061215a6001938e601f199082030186528c5161202a565b9a019201920190939291612116565b606081019081106001600160401b0382111761218457604052565b634e487b7160e01b600052604160045260246000fd5b604081019081106001600160401b0382111761218457604052565b602081019081106001600160401b0382111761218457604052565b608081019081106001600160401b0382111761218457604052565b61014081019081106001600160401b0382111761218457604052565b60a081019081106001600160401b0382111761218457604052565b90601f801991011681019081106001600160401b0382111761218457604052565b604090600319011261050b576040519061225c8261219a565b60043582526024356020830152565b9291926001600160401b0382116121845760405191612294601f8201601f191660200184612222565b82948184528183011161050b578281602093846000960137010152565b9080601f8301121561050b578160206121399335910161226b565b9181601f8401121561050b578235916001600160401b03831161050b576020838186019501011161050b57565b90604051916123078361219a565b82604491821161050b576004905b82821061232157505050565b8135815260209182019101612315565b600435906001600160a01b038216820361050b57565b60e435906001600160a01b038216820361050b57565b6001600160401b0381116121845760051b60200190565b604090600319011261050b576004359060243590565b80548210156123a25760005260206000200190600090565b634e487b7160e01b600052603260045260246000fd5b6009546001600160a01b031633036123cc57565b60405163118cdaa760e01b8152336004820152602490fd5b906040516123f181612169565b82546001600160a01b0390811682526001840154811660208301526002909301549092166040830152565b908060209392818452848401376000828201840152601f01601f1916010190565b9082818152602080910193818360051b82010194846000925b858410612467575050505050505090565b90919293949596601f198282030184528735601e198436030181121561050b5783018681019190356001600160401b03811161050b57803603831361050b576124b58892839260019561241c565b990194019401929594939190612456565b91908201809211611cb157565b90600182811c92168015612503575b60208310146124ed57565b634e487b7160e01b600052602260045260246000fd5b91607f16916124e2565b818110612518575050565b6000815560010161250d565b9190601f811161253357505050565b61255f926000526020600020906020601f840160051c83019310612561575b601f0160051c019061250d565b565b9091508190612552565b91908203918211611cb157565b6040519061258582612169565b60006040838281528260208201520152565b604051906125a4826121eb565b816000815261012060609182602082015282604082015282808201526125c8612578565b6080820152600060a0820152600060c0820152600060e0820152826101008201520152565b6000198114611cb15760010190565b8051156123a25760200190565b80518210156123a25760209160051b010190565b906000929180549161262e836124d3565b9182825260019384811690816000146126905750600114612650575b50505050565b90919394506000526020928360002092846000945b83861061267c57505050500101903880808061264a565b805485870183015294019385908201612665565b9294505050602093945060ff191683830152151560051b0101903880808061264a565b906040918251906126c3826121eb565b819381548352805160016126e4826126dd8184880161261d565b0383612222565b602091828601528251612705816126fe816002890161261d565b0382612222565b83860152825161271c816126fe816003890161261d565b606086015261272d600485016123e4565b6080860152600784015460a0860152600884015460c0860152600984015460e0860152600a84018054906127608261235d565b9361276d86519586612222565b82855260009182528082208186015b8484106127b457505050505050610120926127a985936127b093610100600b98015251809681930161261d565b0384612222565b0152565b858381928a516127c8816126fe818961261d565b81520192019301929061277c565b60001993928482019290918311611cb15780830292808404821490151715611cb15761280290836124c6565b93808501948511611cb1578491600554958685101561291657861115612904575b61282d848461256b565b9060018201809211611cb1576128428261235d565b9260409261285284519586612222565b808552612861601f199161235d565b0160005b8181106128ed57505083976000965b86811115612886575050505050505050565b8084156128d1575b906128cc91600052600a6020526128c686600020996128b56128af826125ed565b9b6126b3565b6128bf828b612609565b5288612609565b506125ed565b612874565b506128dc818361256b565b90838201918211611cb1579061288e565b6020906128f8612597565b82828901015201612865565b9150808501858111611cb15791612823565b50505050509050604051612929816121b5565b6000815290565b6001600160a01b0390911681526040602082018190526121399291019061202a565b64ffffffffff9081166000190191908211611cb157565b64ffffffffff9182169082160391908211611cb157565b9081602091031261050b57516001600160a01b038116810361050b5790565b9060028210156129ac5752565b634e487b7160e01b600052602160045260246000fd5b93919490929460055492600184016005558151956020976129e889850198895190612cd5565b15611d2757606087019660ff8851166000198101908111611cb15760058110156123a25754604080516370f7b36160e01b81526004810195909552825160ff9081166024870152838d015181166044870152928101518316606486015298519091166084840152845160a4840152885160c48401523060e48401526101048301526000916001600160a01b03918a8261012481877f000000000000000000000000000000000000000000000000000000000000000088165af1918215612ccb578492612cac575b508280808b5193633634487360e01b8552169687600485015216928360248401521691826044830152336064830152612aeb608483018961299f565b8b8260a48188887f0000000000000000000000000000000000000000000000000000000000000000165af1918215612ca257908492918692612c83575b508a519663431a717560e01b8852600488015260248701528260448701521692836064860152336084860152612b6160a486018861299f565b8a8560c48184877f0000000000000000000000000000000000000000000000000000000000000000165af1948515612c77579189828d612c379997957f38b2d18bb65cc91d7b436014cf44c8298b13bee60cc18d9e8efec26d1df318909d9c9b99979597612c3a575b50918491600660029594835195612be087612169565b8652808601988952848487019a168a528d83525220915116936001600160601b0360a01b9485835416178255836001830191511685825416179055019251169082541617905551955196845193845283019061299f565ba3565b819750916006612c64879460029796943d8c11612c70575b612c5c8183612222565b810190612980565b98929495505091612bca565b503d612c52565b508851903d90823e3d90fd5b612c9b9192508d803d10612c7057612c5c8183612222565b9038612b28565b8a513d87823e3d90fd5b612cc49192508b3d8d11612c7057612c5c8183612222565b9038612aaf565b89513d86823e3d90fd5b907f30644e72e131a029b85045b68181585d2833e84879b9709143e1f593f0000001808080858196099380098180828187620292fc090894620292f80909600108908082811115612d33575b50600091612d2e9161256b565b081590565b9050828101809111611cb1576000612d21565b6040810192916000915b60028310612d5d57505050565b600190825181526020809101920192019190612d50565b6020612d9491604051809381926314d2f97b60e11b835260048301612d46565b038173143D3817bD9480486B88F0f367CDa1B764DD021b5af4908115612ded57600091612dbf575090565b906020823d8211612de5575b81612dd860209383612222565b8101031261027957505190565b3d9150612dcb565b6040513d6000823e3d90fd5b60405163248f667760e01b81529060049060008284015b838210612e4a575050505060208160848173154A11DFFa2712152Fe19dEe290932Ce2637DD5d5af4908115612ded57600091612dbf575090565b600190835181526020809101930191019091612e10565b604051630926f44b60e31b815290600090600483015b60058310612eb15750505060208160a4817309fA752037ffb6FEecb132a402d434Cfa3285D475af4908115612ded57600091612dbf575090565b600190825181526020809101920192019190612e77565b91909164ffffffffff80809416911601918211611cb157565b90611b5d6121399264ff0000000060ff82169160201b16612969565b60ff60019116019060ff8211611cb157565b919060ff92838216916020908184116132455764ffffffffff9182841691821561323457612f3d8891612efd565b16612f74612f4a8261235d565b95604092612f5a84519889612222565b808852612f69601f199161235d565b013685890137612952565b9060019485808416156000146131ff575080831694818611611cb1578695600052600885528260002054612fa7896125fc565b52999592995b6000935b612fcc575b50505050505050612fc8929350612609565b5190565b86849a9998979a16888110156131f457858c88166130bb5761302691612ffd865191612ff78361219a565b8b612609565b51815261300987613257565b828201528551809381926314d2f97b60e11b835260048301612d46565b038173143D3817bD9480486B88F0f367CDa1B764DD021b5af49081156130b057600091613083575b509986647fffffffff829d8a9b9c9d613073849c8661306c8c612efd565b1690612609565b525b821c16950116939a96612fb1565b908682813d83116130a9575b6130998183612222565b810103126102795750518661304e565b503d61308f565b84513d6000823e3d90fd5b5082828c6130c888612efd565b161c1690647fffffffff8d891c1680921160001461312357509986647fffffffff829d85613102849c9d9e9f6130fd8b612efd565b612ee1565b1660005260088952866000205461311d8d8661306c8c612efd565b52613075565b613181915086908461313e8f61313890612952565b89612ee1565b166000526008825261316386600020549187519261315b8461219a565b83528b612609565b51828201528551809381926314d2f97b60e11b835260048301612d46565b038173143D3817bD9480486B88F0f367CDa1B764DD021b5af49081156130b0576000916131c7575b509986647fffffffff829d8a9b9c9d61311d849c8661306c8c612efd565b908682813d83116131ed575b6131dd8183612222565b81010312610279575051866131a9565b503d6131d3565b508697989950612fb6565b947f0ef71f46e11a513c599eed9dd03576c33439bcfb1cee155316f90541e41649ba61322a896125fc565b5299959299612fad565b945050505050612139919250613257565b604051633e104c7760e01b8152600490fd5b60ff16801561381057600181146137eb57600281146137c657600381146137a1576004811461377c57600581146137575760068114613732576007811461370d57600881146136e857600981146136c357600a811461369e57600b811461367957600c811461365457600d811461362f57600e811461360a57600f81146135e557601081146135c0576011811461359b57601281146135765760138114613551576014811461352c576015811461350757601681146134e257601781146134bd5760188114613498576019811461347357601a811461344e57601b811461342957601c811461340457601d81146133df57601e81146133ba57601f811461339557602014613371576040516310a2ea0560e21b8152600490fd5b7f1d90601a0c76d2f39824f6dc198fb3b48cbd0231516c8f6208e56ea741c341f990565b507f216b9fa3ac3724cf1ec6caf5a66dd85cae3aee727e00d2a0a59f273df3401f1090565b507f2b59c2651b412c029efa38f835ac1b1b5bdaf89dcb2e4bc9219e7d77c65e776a90565b507f14b46e659dc4072fc64a18d44911c4a303b45f1296c3cb7dec77f269bee9b5df90565b507f0845dd838ca63b2f68775aac8513bd692d26f511698206f3c6ce2b4100dd8d8f90565b507f132e4ff3e4ba890f1610efd4d2f69700b825514d557b82663878a56e2acef41c90565b507f24cb019b59431c232413f66b041923214f7a8a7489caa05b66860f1c3c76d3b190565b507f1b6367322bac9f24889900d310e2feaa0021516fac77470aea078e89335d3fcf90565b507f19b336a1e0a933e2a8f97d97322dcee843a2d9a2401bece52a3a25ddd5bb6bc990565b507f1d71ada9e49baeb4a2cf26be37d3bc680554995ef6706105e93978ba71cacf9490565b507f2560496c1138c827f1efb407d0cdb9d6ec9539b0957dfb67de2776e6026d630f90565b507f2ce2c1fb109ad6574570826774ecfca3e04866bb5a3963962b873646db6641f390565b507f1713f3e3dc5e2393bd31ccc0cdd8601bdee3198cf34d566bb60cfab13e5a087390565b507f2c849a73ab21c9e88e1d711f221863e2a94eb58f3eb42dde575301451f3ec5c890565b507f1874217e8e1dbc51c571a2db1103bf47c3e66a59305ca48bbcee6ad1c8cc575190565b507f2b8342160822355808db759147a7d6f61de451bd5bb88f9db2eb406ea68b813890565b507f199cd1f5b757c285023767abbe9bbb318da4e1fd375b5a001b54a0f3901ea7d390565b507f128fb9ad5b2d8e694bec0888ff95609c15b2a96ae80a34946c953dc503e46fb690565b507f2ec047dd616221873c234f36461080c3e760644bb519ebdb49eb9645215e0edc90565b507f2582b5cdefe032d75373f0ede9171406137e93e7d44405a0b0a409c1c739138090565b507f1f336d6d45d293180c75964e99a7599d44cac2ad447c202c3e1973b0322cf99090565b507f05e0136534f74776d69646bd0bd94519e63af45734405f479382d8400514c1a690565b507f10f7b76489e9c36644736c33c600d1bcedd465fd0aff3027e67b02e13875272d90565b507f1e73f08f6e5e4bb9c2096cc4587526ebfd033c222f4a27e97119c867c36a0d3a90565b507f1ea63a974336db6c0423e719d3f0e11494266237dda3a40de3cb76104436635990565b507f0690bfb582c7502ff6d15d519740ecd73d652b7a14dc82bfd250613ee8e0407690565b507f30553f8216db90854953edd47602897f897104d5b0d65a5ce000981c51da32e090565b507f11dc55d21b17daf8e60253c2a43d519039ba968733cf7c9d5df6155939e1a6d890565b507f08e4b5d410c8de929132c214ea600b5f252fa14aabb97ea67cda5bb4e0ebeec890565b507f04265868d2e705f48d3ae49f7749e67a587dafdb569c1d7334675496046eaad690565b507f2a06fb0b739b402c34dc752d8417b9cd67b7f7cabe4b06b5d995053791fcede490565b507f06928e817d2804a3713efd102bae900c9ab3e8e0b0c6c20f8613bd3b0423a89190565b507f0ef71f46e11a513c599eed9dd03576c33439bcfb1cee155316f90541e41649ba90565b612139906040805191613847836121d0565b60803684378051518352602081510151602084015260208101518284015201516060820152612df9565b602061213992604061391981519461388886612207565b60a03687378051518652848151015185870152828151015183870152606081510151606087015260808151015160808701526101208351916138c983612207565b60a036843760a081510151835260c0815101518784015260e08151015185840152610100815101516060840152510151608082015261391283519661390d886121d0565b612e61565b8652612e61565b8385015281519084015201516060820152612df956fea26469706673582212208cd40b888c1456b985dc44ee406404eb976d72346f56f53e461b29ad65cce44164736f6c63430008140033",
  "deployedBytecode": "0x60c080604052600436101561001357600080fd5b600090813560e01c908163055575eb14611fc457508063079410db14611f7f5780631096c30e14611f28578063122db15314611f0057806313fb893214611ed75780631a8cbcaa14611e555780631b6ef3c514611dc95780632b78657114611dab5780632b7ac3f314611d8257806331e766a514611d5d5780633364120a146119345780633364c4c814611797578063343393b5146117525780633dfb88b2146116fa578063423f3e191461167e57806346e47f9a1461161757806358bfc379146114f85780635bb93995146114c757806362a361bb1461149957806362b31f1e1461145457806364e0ece114611333578063652c76e4146112f5578063683f3dc3146112d95780636b4575e214611206578063715018a6146111a85780637d0a81c8146111665780638a2a3dfb146110ca5780638da5cb5b146110a15780639391fc0c146107225780639cfced97146106c2578063aab4a6701461067d578063ac2f00741461062e578063ac98e5df146105ec578063b2d8f81e146105ac578063b68687201461057c578063b87802c81461054e578063bea140b31461044d578063c8cf9ab214610414578063d7a71b9a146103e2578063df82635a146103a7578063edbfe83f1461027c5763f2fde38b146101ef57600080fd5b3461027957602036600319011261027957610208612331565b6102106123b8565b6001600160a01b0390811690811561026057600954826001600160601b0360a01b821617600955167f8be0079c531659141344cd1fd0a4f28419497f9722a3daafe3b4186f6b6457e0600080a380f35b604051631e4fbdf760e01b815260048101849052602490fd5b80fd5b5034610279576040366003190112610279573660231215610279576102a0366122f9565b6040516102ac816121b5565b6040516102b8816121eb565b610140918236833752604051906102ce8261219a565b8382528360208093015281604051936102e6856121eb565b8236863780518552015182840152604051906103018261219a565b7f171e826ad4a870fd925e0bf0e87884e70e080879c2205ef10114f28a3b6f6dd78252828201917f2bd407d897fbbca9f88adfd2d15252e69de8c1564eb4d3d27162e259172f1a1d835260405194610358866121b5565b85526103648186613871565b6040519551969094865b600a8310610392575050506101a09550519084015251610160830152610180820152f35b81806001928b5181520199019201919761036e565b503461027957806003193601126102795760206040517f00000000000000000000000000000000000000000000000000000000000000008152f35b50346102795760ff60406020926103f836612374565b9082526012855282822090825284522054166040519015158152f35b5034610279576020366003190112610279576020906040906001600160a01b0361043c612331565b168152601083522054604051908152f35b5034610279576060366003190112610279573660231215610279576040519061047582612169565b60648236821161050b576004905b82821061053e5750506040516304b98e1d60e31b81529283908390600483015b60038310610524575050506020918173__$fa059fb1da6d850ca47ea49359bfe89f78$__5af490811561051857906104e1575b602090604051908152f35b506020813d8211610510575b816104fa60209383612222565b8101031261050b57602090516104d6565b600080fd5b3d91506104ed565b604051903d90823e3d90fd5b8151815286935060019290920191602091820191016104a3565b8135815260209182019101610483565b50346102795760203660031901126102795760043560058110156105785760209054604051908152f35b5080fd5b5034610279578060031936011261027957604060075481519064ffffffffff90818116835260281c166020820152f35b5034610279576105bb36612374565b919081526011602052604081209081548310156102795760206105de848461238a565b90546040519160031b1c8152f35b50346102795780600319360112610279576080600b5460ff604051918181168352818160081c166020840152818160101c16604084015260181c166060820152f35b5034610279576020366003190112610279576040606091600435815260066020522060018060a01b03908181541691600281600184015416920154169060405192835260208301526040820152f35b50346102795780600319360112610279576040517f00000000000000000000000000000000000000000000000000000000000000006001600160a01b03168152602090f35b50346102795760a0366003190112610279573660231215610279576040516106e981612207565b60a48136821161050b576020926004905b838210610713578461070b84612e61565b604051908152f35b813581529084019084016106fa565b50346102795760c0366003190112610279576004356001600160401b038111610578576107539036906004016122cc565b906001600160401b036024351161109d5736602360243501121561109d576001600160401b03602435600401351161109d5736602480356004013560051b813501011161109d576044356001600160401b038111611099576107b99036906004016122cc565b919060026084351015611095576005549260a4358652601160205260408620805490600160401b82101561108157906107f79160018201815561238a565b815460001960039290921b91821b19169086901b179055600e54600f546040516108819290916001600160a01b039081169116610833836121d0565b60ff600b548181168552818160081c166020860152818160101c16604086015260181c1660608401526040516108688161219a565b600c548152600d546020820152608435936064356129c2565b8386526006602052610895604087206123e4565b9260018060a01b0384511687526010602052846040882055604051956020808801526108e1876108d36040820160243560040135602480350161243d565b03601f198101895288612222565b6108ed606435426124c6565b96604051906108fb826121eb565b87825261090936848661226b565b6020830152604082015261091e36858761226b565b60608201528560808201524260a08201528760c08201526024356004013560e08201526109506024356004013561235d565b61095d6040519182612222565b602480356004810135835201602082015b602480356004013560051b81350101821061103b575050610100820152604051610997816121b5565b898152610120820152868952600a60205260408920908051825560208101518051906001600160401b038211610eb95781906109e3826109da60018801546124d3565b60018801612524565b602090601f8311600114610fcc578d92610fc1575b50508160011b916000199060031b1c19161760018301555b60408101518051906001600160401b038211610eb9578190610a4282610a3960028801546124d3565b60028801612524565b602090601f8311600114610f52578d92610f47575b50508160011b916000199060031b1c19161760028301555b60608101518051906001600160401b038211610eb9578190610aa182610a9860038801546124d3565b60038801612524565b602090601f8311600114610ed8578d92610ecd575b50508160011b916000199060031b1c19161760038301555b608081015180516004840180546001600160a01b03199081166001600160a01b039384161790915560208301516005860180548316918416919091179055604090920151600685018054909316911617905560a0810151600783015560c0810151600883015560e08101516009830155610100810151805190600160401b8211610eb957600a84015482600a860155808310610e3e575b50602001600a84018c5260208c208c915b838310610d49575050505061012001518051906001600160401b038211610d3557610bb182610ba8600b8601546124d3565b600b8601612524565b6020908b601f8411600114610c975793600b84610c50957f7532e9985b123ef8bda3bc40b1a4296f34238889a58a41de23df560b8bfb9bc69c9b9995610c779b9995610c699992610c8c575b50508160011b916000199060031b1c1916179101555b6040805189516001600160a01b0390811682526020808c01518216908301529982015190991690890152610100606089015261010088019161241c565b858103608087015260243560040135602480350161243d565b9184830360a086015261241c565b934260c083015260e08201528033940390a380f35b015190503880610bfd565b5090600b84018c5260208c20918c5b601f1985168110610d1d575093600b6001857f7532e9985b123ef8bda3bc40b1a4296f34238889a58a41de23df560b8bfb9bc69c9b9995610c779b9995610c6999610c5099601f19811610610d04575b505050811b01910155610c13565b015160001960f88460031b161c19169055388080610cf6565b91926020600181928685015181550194019201610ca6565b634e487b7160e01b8b52604160045260248bfd5b80518051906001600160401b038211610e29578f90610d7283610d6c87546124d3565b87612524565b602091601f8411600114610dbc57928060209360019693879692610db1575b5050600019600383901b1c191690841b1785555b01920192019190610b76565b015190503880610d91565b919085835260208320925b601f1985168110610e11575083602093600196938796938794601f19811610610df8575b505050811b018555610da5565b015160001960f88460031b161c19169055388080610deb565b91926020600181928685015181550194019201610dc7565b50634e487b7160e01b8f52604160045260248ffd5b600a85018d5260208d20908382018e5b8284018210610e5f57505050610b65565b90600191610e6d82546124d3565b80610e7c575b5050018e610e4e565b601f81118414610e94575050600081555b8f38610e73565b828252610eaf601f60208420920160051c820185830161250d565b6000835555610e8d565b634e487b7160e01b8c52604160045260248cfd5b015190503880610ab6565b9250600385018d5260208d20908d935b601f1984168510610f2c576001945083601f19811610610f13575b505050811b016003830155610ace565b015160001960f88460031b161c19169055388080610f03565b81810151835560209485019460019093019290910190610ee8565b015190503880610a57565b9250600285018d5260208d20908d935b601f1984168510610fa6576001945083601f19811610610f8d575b505050811b016002830155610a6f565b015160001960f88460031b161c19169055388080610f7d565b81810151835560209485019460019093019290910190610f62565b0151905038806109f8565b9250600185018d5260208d20908d935b601f1984168510611020576001945083601f19811610611007575b505050811b016001830155610a10565b015160001960f88460031b161c19169055388080610ff7565b81810151835560209485019460019093019290910190610fdc565b81356001600160401b03811161107d57602435013660438201121561107d576020916110728392369060446024820135910161226b565b81520191019061096e565b8c80fd5b634e487b7160e01b88526041600452602488fd5b8480fd5b8380fd5b8280fd5b50346102795780600319360112610279576009546040516001600160a01b039091168152602090f35b50346102795736600319016101808112610578576101401361027957604051906110f3826121b5565b366023121561027957506040519061110a826121eb565b816101449236841161050b576004905b848210611156575050815260403661014319011261050b5760209161070b91604051916111468361219a565b3582526101643584830152613871565b813581526020918201910161111a565b503461027957608036600319011261027957602061070b60405161118981612169565b61119236612243565b8152604435838201526064356040820152613835565b50346102795780600319360112610279576111c16123b8565b600980546001600160a01b031981169091556000906001600160a01b03167f8be0079c531659141344cd1fd0a4f28419497f9722a3daafe3b4186f6b6457e08280a380f35b50346102795761014036600319011261027957608036602319011261050b57604051611231816121d0565b60243560ff8116810361050b57815260443560ff8116810361050b57602082015260643560ff8116810361050b57604082015260843560ff8116810361050b57606082015260403660a319011261050b5760405161128e8161219a565b60a435815260c43560208201526112a3612347565b61010435906001600160a01b038216820361050b57610124359260028410156112d5576112d2946004356129c2565b80f35b8580fd5b50346102795780600319360112610279576020604051600a8152f35b5034610279578060031936011261027957602060405160ff7f0000000000000000000000000000000000000000000000000000000000000000168152f35b503461027957366003190161010081126105785760801361050b5760405161135a816121d0565b60043560ff8116810361050b5781526024359060ff8216820361050b57602081019182526044359060ff8216820361050b57604081019182526064359260ff8416840361050b5760608201938452604036608319011261050b576040516113c08161219a565b6084358152602081019160a435835260c4359560018060a01b039586881680980361050b5760ff6113ef612347565b966113f86123b8565b511663ff00000062ff000061ff00600b54965160081b16935160101b16935160181b169363ffffffff191617171717600b5551600c5551600d556001600160601b0360a01b9283600e541617600e551690600f541617600f5580f35b50346102795780600319360112610279576040517f00000000000000000000000000000000000000000000000000000000000000006001600160a01b03168152602090f35b503461027957604036600319011261027957366023121561027957602061070b6114c2366122f9565b612d74565b503461027957602061070b6114db36612374565b604051916114e88361219a565b6040368437825283820152612d74565b50346102795760209081600319360112610279576004356001600160401b03811161057857366023820112156105785780600401356115368161235d565b916115446040519384612222565b8183528483016024819360051b830101913683116112d55791869394916024879401905b82821061160557505050604051838101809251909590845b8181106115ec575050506115a2816115b394959603601f198101835282612222565b604051928392839251928391612007565b8101039060025afa15610518577f30644e72e131a029b85045b68181585d2833e84879b9709143e1f593f0000001905106604051908152f35b8251885296860196899689965090920191600101611580565b81358152879450908501908501611568565b5034610279576020366003190112610279576001600160a01b03611639612331565b16808252601060205260408220546005541115611666578160409160209352601083522054604051908152f35b6024906040519063e64d908d60e01b82526004820152fd5b503461027957806003193601126102795764ffffffffff908160075460281c16906001809381945b6116b7575b602061070b8686612f0f565b90919360ff80821691858486851b1610156116f2575081146116de578201939190816116a6565b634e487b7160e01b85526011600452602485fd5b9550506116ab565b503461027957608036600319011261027957366023121561027957604051611721816121d0565b60848136821161050b576020926004905b838210611743578461070b84612df9565b81358152908401908401611732565b50346102795780600319360112610279576040517f00000000000000000000000000000000000000000000000000000000000000006001600160a01b03168152602090f35b5034610279576040366003190112610279576004356001600160401b03602435818111611099576117cc9036906004016122cc565b91906117d66123b8565b60055484101561191b57838552602091600a8352600b60408720019084116119075761180c8461180683546124d3565b83612524565b85601f851160011461187f579161186e91857f2cd30b9efd64638f847bef681e87dfbb567e261d02660c8166a92f33729ab33e9695948991611874575b508560011b906000198760031b1c19161790555b60405193838594855284019161241c565b0390a280f35b905082013538611849565b81875283872090601f198616885b8181106118f057509161186e9391877f2cd30b9efd64638f847bef681e87dfbb567e261d02660c8166a92f33729ab33e98979694106118d6575b5050600185811b01905561185d565b830135600019600388901b60f8161c1916905538806118c7565b91928660018192868901358155019401920161188d565b634e487b7160e01b86526041600452602486fd5b60405163a86ecdd560e01b815260048101859052602490fd5b5034610279576080806003193601126105785761195036612243565b6001600160401b039190604435838111611095576119729036906004016122b1565b926064358181116112d55761198b9036906004016122b1565b91805186526020926012845260408720908483019182518952855260ff865260ff604089205416611d4b576007549364ffffffffff94857f00000000000000000000000000000000000000000000000000000000000000009160281c161015611d39576119fb8451845190612cd5565b15611d27576001600160a01b03978991907f00000000000000000000000000000000000000000000000000000000000000008a1690813b15611099578391611a5a9160405195868094819363125c7dfb60e11b83523360048401612930565b03925af18015611c3357611d01575b50508490611a8e9697604051808099819463b36543a960e01b83523360048401612930565b03917f0000000000000000000000000000000000000000000000000000000000000000165afa948515611cf6578795611cc7575b50611ae5604051611ad281612169565b8381528686820152426040820152613835565b9460075495848760281c169660018801868111611cb15769ffffffffff0000000000906028999596991b169069ffffffffff0000000000191617600755928860a05273__$1540826e134b1b69b7091c82576ee3aadd$__935b85611b6285611b5d8c5160a0511664ff0000000060a0518d1b16612969565b612ec8565b168a526008908188528060408c20556001851615611c3e57611bce918891611b94611b8c88612952565b60a051612ee1565b918d8a60405194611ba48661219a565b169052835260408d2054825282820152604051809381926314d2f97b60e11b835260048301612d46565b0381885af48015611c33578a90611c01575b647fffffffff91509360011c16968851600160a051011660a0529692611b3e565b508681813d8311611c2c575b611c178183612222565b8101031261050b57647fffffffff9051611be0565b503d611c0d565b6040513d8c823e3d90fd5b8a83898b8a887fd3c3cd829e4e37d5baaf10abace26b24e0046e20500c999380410f807edfcda06060611c778460075460281c16612952565b8551938851956040519216825287820152426040820152a35183526012815260408320915183525260408120600160ff1982541617905580f35b634e487b7160e01b600052601160045260246000fd5b9094508381813d8311611cef575b611cdf8183612222565b8101031261050b57519338611ac2565b503d611cd5565b6040513d89823e3d90fd5b8111611d135760405280611a8e611a69565b634e487b7160e01b89526041600452602489fd5b6040516379fae7af60e01b8152600490fd5b60405163b984588b60e01b8152600490fd5b604051632e13e04560e01b8152600490fd5b50346102795780600319360112610279576040600c54600d5482519182526020820152f35b5034610279578060031936011261027957600e546040516001600160a01b039091168152602090f35b50346102795780600319360112610279576020600554604051908152f35b503461027957606036600319011261027957604435801515810361057857611df6906024356004356127d6565b60405190602092838301848452825180915260408401948060408360051b870101940192955b828710611e295785850386f35b909192938280611e45600193603f198a8203018652885161204f565b9601920196019592919092611e1c565b503461027957602036600319011261027957600435611e72612578565b50600554811015611ebf57604082611e9392606094526006602052206123e4565b6040805182516001600160a01b0390811682526020808501518216908301529282015190921690820152f35b6024906040519063a86ecdd560e01b82526004820152fd5b5034610279578060031936011261027957600f546040516001600160a01b039091168152602090f35b5034610279578060031936011261027957602064ffffffffff60075460281c16604051908152f35b503461027957602036600319011261027957600435611f45612597565b50600554811015611ebf57604082611f6792611f7b9452600a602052206126b3565b60405191829160208352602083019061204f565b0390f35b50346102795780600319360112610279576040517f00000000000000000000000000000000000000000000000000000000000000006001600160a01b03168152602090f35b9050346105785781600319360112610578577f00000000000000000000000000000000000000000000000000000000000000006001600160a01b03168152602090f35b60005b83811061201a5750506000910152565b818101518382015260200161200a565b9060209161204381518092818552858086019101612007565b601f01601f1916010190565b91908251815260209061209961208761207584870151610180808787015285019061202a565b6040870151848203604086015261202a565b6060860151838203606085015261202a565b60808086015180516001600160a01b03908116928501929092526020810151821660a0850152604001511660c08301529360a081015160e083015260c081015190610100918284015260e08101519161012092838501528101519383870361014085015284518088528188019180808360051b8b01019701926000905b83821061213c57505050505061213994955001519061016081840391015261202a565b90565b9091929397838061215a6001938e601f199082030186528c5161202a565b9a019201920190939291612116565b606081019081106001600160401b0382111761218457604052565b634e487b7160e01b600052604160045260246000fd5b604081019081106001600160401b0382111761218457604052565b602081019081106001600160401b0382111761218457604052565b608081019081106001600160401b0382111761218457604052565b61014081019081106001600160401b0382111761218457604052565b60a081019081106001600160401b0382111761218457604052565b90601f801991011681019081106001600160401b0382111761218457604052565b604090600319011261050b576040519061225c8261219a565b60043582526024356020830152565b9291926001600160401b0382116121845760405191612294601f8201601f191660200184612222565b82948184528183011161050b578281602093846000960137010152565b9080601f8301121561050b578160206121399335910161226b565b9181601f8401121561050b578235916001600160401b03831161050b576020838186019501011161050b57565b90604051916123078361219a565b82604491821161050b576004905b82821061232157505050565b8135815260209182019101612315565b600435906001600160a01b038216820361050b57565b60e435906001600160a01b038216820361050b57565b6001600160401b0381116121845760051b60200190565b604090600319011261050b576004359060243590565b80548210156123a25760005260206000200190600090565b634e487b7160e01b600052603260045260246000fd5b6009546001600160a01b031633036123cc57565b60405163118cdaa760e01b8152336004820152602490fd5b906040516123f181612169565b82546001600160a01b0390811682526001840154811660208301526002909301549092166040830152565b908060209392818452848401376000828201840152601f01601f1916010190565b9082818152602080910193818360051b82010194846000925b858410612467575050505050505090565b90919293949596601f198282030184528735601e198436030181121561050b5783018681019190356001600160401b03811161050b57803603831361050b576124b58892839260019561241c565b990194019401929594939190612456565b91908201809211611cb157565b90600182811c92168015612503575b60208310146124ed57565b634e487b7160e01b600052602260045260246000fd5b91607f16916124e2565b818110612518575050565b6000815560010161250d565b9190601f811161253357505050565b61255f926000526020600020906020601f840160051c83019310612561575b601f0160051c019061250d565b565b9091508190612552565b91908203918211611cb157565b6040519061258582612169565b60006040838281528260208201520152565b604051906125a4826121eb565b816000815261012060609182602082015282604082015282808201526125c8612578565b6080820152600060a0820152600060c0820152600060e0820152826101008201520152565b6000198114611cb15760010190565b8051156123a25760200190565b80518210156123a25760209160051b010190565b906000929180549161262e836124d3565b9182825260019384811690816000146126905750600114612650575b50505050565b90919394506000526020928360002092846000945b83861061267c57505050500101903880808061264a565b805485870183015294019385908201612665565b9294505050602093945060ff191683830152151560051b0101903880808061264a565b906040918251906126c3826121eb565b819381548352805160016126e4826126dd8184880161261d565b0383612222565b602091828601528251612705816126fe816002890161261d565b0382612222565b83860152825161271c816126fe816003890161261d565b606086015261272d600485016123e4565b6080860152600784015460a0860152600884015460c0860152600984015460e0860152600a84018054906127608261235d565b9361276d86519586612222565b82855260009182528082208186015b8484106127b457505050505050610120926127a985936127b093610100600b98015251809681930161261d565b0384612222565b0152565b858381928a516127c8816126fe818961261d565b81520192019301929061277c565b60001993928482019290918311611cb15780830292808404821490151715611cb15761280290836124c6565b93808501948511611cb1578491600554958685101561291657861115612904575b61282d848461256b565b9060018201809211611cb1576128428261235d565b9260409261285284519586612222565b808552612861601f199161235d565b0160005b8181106128ed57505083976000965b86811115612886575050505050505050565b8084156128d1575b906128cc91600052600a6020526128c686600020996128b56128af826125ed565b9b6126b3565b6128bf828b612609565b5288612609565b506125ed565b612874565b506128dc818361256b565b90838201918211611cb1579061288e565b6020906128f8612597565b82828901015201612865565b9150808501858111611cb15791612823565b50505050509050604051612929816121b5565b6000815290565b6001600160a01b0390911681526040602082018190526121399291019061202a565b64ffffffffff9081166000190191908211611cb157565b64ffffffffff9182169082160391908211611cb157565b9081602091031261050b57516001600160a01b038116810361050b5790565b9060028210156129ac5752565b634e487b7160e01b600052602160045260246000fd5b93919490929460055492600184016005558151956020976129e889850198895190612cd5565b15611d2757606087019660ff8851166000198101908111611cb15760058110156123a25754604080516370f7b36160e01b81526004810195909552825160ff9081166024870152838d015181166044870152928101518316606486015298519091166084840152845160a4840152885160c48401523060e48401526101048301526000916001600160a01b03918a8261012481877f000000000000000000000000000000000000000000000000000000000000000088165af1918215612ccb578492612cac575b508280808b5193633634487360e01b8552169687600485015216928360248401521691826044830152336064830152612aeb608483018961299f565b8b8260a48188887f0000000000000000000000000000000000000000000000000000000000000000165af1918215612ca257908492918692612c83575b508a519663431a717560e01b8852600488015260248701528260448701521692836064860152336084860152612b6160a486018861299f565b8a8560c48184877f0000000000000000000000000000000000000000000000000000000000000000165af1948515612c77579189828d612c379997957f38b2d18bb65cc91d7b436014cf44c8298b13bee60cc18d9e8efec26d1df318909d9c9b99979597612c3a575b50918491600660029594835195612be087612169565b8652808601988952848487019a168a528d83525220915116936001600160601b0360a01b9485835416178255836001830191511685825416179055019251169082541617905551955196845193845283019061299f565ba3565b819750916006612c64879460029796943d8c11612c70575b612c5c8183612222565b810190612980565b98929495505091612bca565b503d612c52565b508851903d90823e3d90fd5b612c9b9192508d803d10612c7057612c5c8183612222565b9038612b28565b8a513d87823e3d90fd5b612cc49192508b3d8d11612c7057612c5c8183612222565b9038612aaf565b89513d86823e3d90fd5b907f30644e72e131a029b85045b68181585d2833e84879b9709143e1f593f0000001808080858196099380098180828187620292fc090894620292f80909600108908082811115612d33575b50600091612d2e9161256b565b081590565b9050828101809111611cb1576000612d21565b6040810192916000915b60028310612d5d57505050565b600190825181526020809101920192019190612d50565b6020612d9491604051809381926314d2f97b60e11b835260048301612d46565b038173__$1540826e134b1b69b7091c82576ee3aadd$__5af4908115612ded57600091612dbf575090565b906020823d8211612de5575b81612dd860209383612222565b8101031261027957505190565b3d9150612dcb565b6040513d6000823e3d90fd5b60405163248f667760e01b81529060049060008284015b838210612e4a575050505060208160848173__$e61c65d9562aef5fa6ab22c0f787cf1e30$__5af4908115612ded57600091612dbf575090565b600190835181526020809101930191019091612e10565b604051630926f44b60e31b815290600090600483015b60058310612eb15750505060208160a48173__$46fbdf6658faf65265971bdad66851b86c$__5af4908115612ded57600091612dbf575090565b600190825181526020809101920192019190612e77565b91909164ffffffffff80809416911601918211611cb157565b90611b5d6121399264ff0000000060ff82169160201b16612969565b60ff60019116019060ff8211611cb157565b919060ff92838216916020908184116132455764ffffffffff9182841691821561323457612f3d8891612efd565b16612f74612f4a8261235d565b95604092612f5a84519889612222565b808852612f69601f199161235d565b013685890137612952565b9060019485808416156000146131ff575080831694818611611cb1578695600052600885528260002054612fa7896125fc565b52999592995b6000935b612fcc575b50505050505050612fc8929350612609565b5190565b86849a9998979a16888110156131f457858c88166130bb5761302691612ffd865191612ff78361219a565b8b612609565b51815261300987613257565b828201528551809381926314d2f97b60e11b835260048301612d46565b038173__$1540826e134b1b69b7091c82576ee3aadd$__5af49081156130b057600091613083575b509986647fffffffff829d8a9b9c9d613073849c8661306c8c612efd565b1690612609565b525b821c16950116939a96612fb1565b908682813d83116130a9575b6130998183612222565b810103126102795750518661304e565b503d61308f565b84513d6000823e3d90fd5b5082828c6130c888612efd565b161c1690647fffffffff8d891c1680921160001461312357509986647fffffffff829d85613102849c9d9e9f6130fd8b612efd565b612ee1565b1660005260088952866000205461311d8d8661306c8c612efd565b52613075565b613181915086908461313e8f61313890612952565b89612ee1565b166000526008825261316386600020549187519261315b8461219a565b83528b612609565b51828201528551809381926314d2f97b60e11b835260048301612d46565b038173__$1540826e134b1b69b7091c82576ee3aadd$__5af49081156130b0576000916131c7575b509986647fffffffff829d8a9b9c9d61311d849c8661306c8c612efd565b908682813d83116131ed575b6131dd8183612222565b81010312610279575051866131a9565b503d6131d3565b508697989950612fb6565b947f0ef71f46e11a513c599eed9dd03576c33439bcfb1cee155316f90541e41649ba61322a896125fc565b5299959299612fad565b945050505050612139919250613257565b604051633e104c7760e01b8152600490fd5b60ff16801561381057600181146137eb57600281146137c657600381146137a1576004811461377c57600581146137575760068114613732576007811461370d57600881146136e857600981146136c357600a811461369e57600b811461367957600c811461365457600d811461362f57600e811461360a57600f81146135e557601081146135c0576011811461359b57601281146135765760138114613551576014811461352c576015811461350757601681146134e257601781146134bd5760188114613498576019811461347357601a811461344e57601b811461342957601c811461340457601d81146133df57601e81146133ba57601f811461339557602014613371576040516310a2ea0560e21b8152600490fd5b7f1d90601a0c76d2f39824f6dc198fb3b48cbd0231516c8f6208e56ea741c341f990565b507f216b9fa3ac3724cf1ec6caf5a66dd85cae3aee727e00d2a0a59f273df3401f1090565b507f2b59c2651b412c029efa38f835ac1b1b5bdaf89dcb2e4bc9219e7d77c65e776a90565b507f14b46e659dc4072fc64a18d44911c4a303b45f1296c3cb7dec77f269bee9b5df90565b507f0845dd838ca63b2f68775aac8513bd692d26f511698206f3c6ce2b4100dd8d8f90565b507f132e4ff3e4ba890f1610efd4d2f69700b825514d557b82663878a56e2acef41c90565b507f24cb019b59431c232413f66b041923214f7a8a7489caa05b66860f1c3c76d3b190565b507f1b6367322bac9f24889900d310e2feaa0021516fac77470aea078e89335d3fcf90565b507f19b336a1e0a933e2a8f97d97322dcee843a2d9a2401bece52a3a25ddd5bb6bc990565b507f1d71ada9e49baeb4a2cf26be37d3bc680554995ef6706105e93978ba71cacf9490565b507f2560496c1138c827f1efb407d0cdb9d6ec9539b0957dfb67de2776e6026d630f90565b507f2ce2c1fb109ad6574570826774ecfca3e04866bb5a3963962b873646db6641f390565b507f1713f3e3dc5e2393bd31ccc0cdd8601bdee3198cf34d566bb60cfab13e5a087390565b507f2c849a73ab21c9e88e1d711f221863e2a94eb58f3eb42dde575301451f3ec5c890565b507f1874217e8e1dbc51c571a2db1103bf47c3e66a59305ca48bbcee6ad1c8cc575190565b507f2b8342160822355808db759147a7d6f61de451bd5bb88f9db2eb406ea68b813890565b507f199cd1f5b757c285023767abbe9bbb318da4e1fd375b5a001b54a0f3901ea7d390565b507f128fb9ad5b2d8e694bec0888ff95609c15b2a96ae80a34946c953dc503e46fb690565b507f2ec047dd616221873c234f36461080c3e760644bb519ebdb49eb9645215e0edc90565b507f2582b5cdefe032d75373f0ede9171406137e93e7d44405a0b0a409c1c739138090565b507f1f336d6d45d293180c75964e99a7599d44cac2ad447c202c3e1973b0322cf99090565b507f05e0136534f74776d69646bd0bd94519e63af45734405f479382d8400514c1a690565b507f10f7b76489e9c36644736c33c600d1bcedd465fd0aff3027e67b02e13875272d90565b507f1e73f08f6e5e4bb9c2096cc4587526ebfd033c222f4a27e97119c867c36a0d3a90565b507f1ea63a974336db6c0423e719d3f0e11494266237dda3a40de3cb76104436635990565b507f0690bfb582c7502ff6d15d519740ecd73d652b7a14dc82bfd250613ee8e0407690565b507f30553f8216db90854953edd47602897f897104d5b0d65a5ce000981c51da32e090565b507f11dc55d21b17daf8e60253c2a43d519039ba968733cf7c9d5df6155939e1a6d890565b507f08e4b5d410c8de929132c214ea600b5f252fa14aabb97ea67cda5bb4e0ebeec890565b507f04265868d2e705f48d3ae49f7749e67a587dafdb569c1d7334675496046eaad690565b507f2a06fb0b739b402c34dc752d8417b9cd67b7f7cabe4b06b5d995053791fcede490565b507f06928e817d2804a3713efd102bae900c9ab3e8e0b0c6c20f8613bd3b0423a89190565b507f0ef71f46e11a513c599eed9dd03576c33439bcfb1cee155316f90541e41649ba90565b612139906040805191613847836121d0565b60803684378051518352602081510151602084015260208101518284015201516060820152612df9565b602061213992604061391981519461388886612207565b60a03687378051518652848151015185870152828151015183870152606081510151606087015260808151015160808701526101208351916138c983612207565b60a036843760a081510151835260c0815101518784015260e08151015185840152610100815101516060840152510151608082015261391283519661390d886121d0565b612e61565b8652612e61565b8385015281519084015201516060820152612df956fea26469706673582212208cd40b888c1456b985dc44ee406404eb976d72346f56f53e461b29ad65cce44164736f6c63430008140033",
  "libraries": {
    "PoseidonT3": "0x143D3817bD9480486B88F0f367CDa1B764DD021b",
    "PoseidonT4": "0x8eA23f75Fc42a171a0eBa5b60b6d90bd128E087b",
    "PoseidonT5": "0x154A11DFFa2712152Fe19dEe290932Ce2637DD5d",
    "PoseidonT6": "0x09fA752037ffb6FEecb132a402d434Cfa3285D47"
  },
  "devdoc": {
    "errors": {
      "OwnableInvalidOwner(address)": [
        {
          "details": "The owner is not a valid owner account. (eg. `address(0)`)"
        }
      ],
      "OwnableUnauthorizedAccount(address)": [
        {
          "details": "The caller account is not authorized to perform an operation."
        }
      ]
    },
    "kind": "dev",
    "methods": {
      "deployPoll(uint256,(uint8,uint8,uint8,uint8),(uint256,uint256),address,address,uint8)": {
        "params": {
          "_coordinatorPubKey": "The coordinator's public key",
          "_duration": "How long should the Poll last for",
          "_mode": "Voting mode",
          "_treeDepths": "The depth of the Merkle trees",
          "_verifier": "The Verifier Contract",
          "_vkRegistry": "The VkRegistry Contract"
        }
      },
      "getPoll(uint256)": {
        "params": {
          "_pollId": "The identifier of the Poll to retrieve"
        },
        "returns": {
          "pollContracts": "The Poll contract object"
        }
      },
      "getStateTreeRoot()": {
        "returns": {
          "root": "The Merkle root"
        }
      },
      "hash2(uint256[2])": {
        "params": {
          "array": "An array of two uint256 elements."
        },
        "returns": {
          "result": "The Poseidon hash of the two elements."
        }
      },
      "hash3(uint256[3])": {
        "params": {
          "array": "An array of three uint256 elements."
        },
        "returns": {
          "result": "The Poseidon hash of the three elements."
        }
      },
      "hash4(uint256[4])": {
        "params": {
          "array": "An array of four uint256 elements."
        },
        "returns": {
          "result": "The Poseidon hash of the four elements."
        }
      },
      "hash5(uint256[5])": {
        "params": {
          "array": "An array of five uint256 elements."
        },
        "returns": {
          "result": "The Poseidon hash of the five elements."
        }
      },
      "hashLeftRight(uint256,uint256)": {
        "params": {
          "left": "the first element to hash.",
          "right": "the second element to hash."
        },
        "returns": {
          "result": "The Poseidon hash of the two elements."
        }
      },
      "hashMessageAndEncPubKey((uint256[10]),(uint256,uint256))": {
        "params": {
          "_encPubKey": "the encryption public key to be hashed",
          "_message": "the message to be hashed"
        },
        "returns": {
          "msgHash": "The hash of the message and the encryption public key"
        }
      },
      "hashStateLeaf(((uint256,uint256),uint256,uint256))": {
        "params": {
          "_stateLeaf": "the state leaf to be hashed"
        },
        "returns": {
          "ciphertext": "The hash of the state leaf"
        }
      },
      "numSignUps()": {
        "returns": {
          "signUps": "numsignUps The number of signups"
        }
      },
      "owner()": {
        "details": "Returns the address of the current owner."
      },
      "padAndHashMessage(uint256[2])": {
        "params": {
          "dataToPad": "the data to be padded"
        },
        "returns": {
          "message": "The padded message",
          "msgHash": "The hash of the padded message and encryption key",
          "padKey": "The padding public key"
        }
      },
      "renounceOwnership()": {
        "details": "Leaves the contract without owner. It will not be possible to call `onlyOwner` functions. Can only be called by the current owner. NOTE: Renouncing ownership will leave the contract without an owner, thereby disabling any functionality that is only available to the owner."
      },
      "sha256Hash(uint256[])": {
        "params": {
          "array": "The array of uint256 elements."
        },
        "returns": {
          "result": "The SHA256 hash of the array."
        }
      },
      "signUp((uint256,uint256),bytes,bytes)": {
        "params": {
          "_initialVoiceCreditProxyData": "Data to pass to the     InitialVoiceCreditProxy, which allows it to determine how many voice     credits this user should have.",
          "_pubKey": "The user's desired public key.",
          "_signUpGatekeeperData": "Data to pass to the sign-up gatekeeper's     register() function. For instance, the POAPGatekeeper or     SignUpTokenGatekeeper requires this value to be the ABI-encoded     token ID."
        }
      },
      "transferOwnership(address)": {
        "details": "Transfers ownership of the contract to a new account (`newOwner`). Can only be called by the current owner."
      }
    },
    "title": "MACI - Minimum Anti-Collusion Infrastructure Version 1",
    "version": 1
  },
  "userdoc": {
    "errors": {
      "DefaultZeroBadIndex()": [
        {
          "notice": "Custom errors"
        }
      ],
      "InvalidMessage()": [
        {
          "notice": "custom errors"
        }
      ],
      "PoseidonHashLibrariesNotLinked()": [
        {
          "notice": "custom errors"
        }
      ]
    },
    "kind": "user",
    "methods": {
      "MESSAGE_DATA_LENGTH()": {
        "notice": "the length of a MACI message"
      },
      "deployPoll(uint256,(uint8,uint8,uint8,uint8),(uint256,uint256),address,address,uint8)": {
        "notice": "Deploy a new Poll contract."
      },
      "emptyBallotRoots(uint256)": {
        "notice": "The roots of the empty ballot trees"
      },
      "getPoll(uint256)": {
        "notice": "Get the Poll details"
      },
      "getStateTreeRoot()": {
        "notice": "Return the main root of the StateAq contract"
      },
      "hash2(uint256[2])": {
        "notice": "Computes the Poseidon hash of two uint256 elements."
      },
      "hash3(uint256[3])": {
        "notice": "Computes the Poseidon hash of three uint256 elements."
      },
      "hash4(uint256[4])": {
        "notice": "Computes the Poseidon hash of four uint256 elements."
      },
      "hash5(uint256[5])": {
        "notice": "Computes the Poseidon hash of five uint256 elements."
      },
      "hashLeftRight(uint256,uint256)": {
        "notice": "Computes the Poseidon hash of two uint256 elements."
      },
      "hashMessageAndEncPubKey((uint256[10]),(uint256,uint256))": {
        "notice": "An utility function used to hash a MACI message and an encryption public key"
      },
      "hashStateLeaf(((uint256,uint256),uint256,uint256))": {
        "notice": "An utility function used to hash a state leaf"
      },
      "initialVoiceCreditProxy()": {
        "notice": "The contract which provides the values of the initial voice credit balance per user"
      },
      "lazyIMTData()": {
        "notice": "The state tree. Represents a mapping between each user's public key and their voice credit balance."
      },
      "messageProcessorFactory()": {
        "notice": "Factory contract that deploy a MessageProcessor contract"
      },
      "nextPollId()": {
        "notice": "Each poll has an incrementing ID"
      },
      "numSignUps()": {
        "notice": "Get the number of signups"
      },
      "padAndHashMessage(uint256[2])": {
        "notice": "An utility function used to pad and hash a MACI message"
      },
      "pollFactory()": {
        "notice": "Factory contract that deploy a Poll contract"
      },
      "polls(uint256)": {
        "notice": "A mapping of poll IDs to Poll contracts."
      },
      "sha256Hash(uint256[])": {
        "notice": "Computes the SHA256 hash of an array of uint256 elements."
      },
      "signUp((uint256,uint256),bytes,bytes)": {
        "notice": "Allows any eligible user sign up. The sign-up gatekeeper should prevent double sign-ups or ineligible users from doing so.  This function will only succeed if the sign-up deadline has not passed. It also enqueues a fresh state leaf into the state AccQueue."
      },
      "signUpGatekeeper()": {
        "notice": "Address of the SignUpGatekeeper, a contract which determines whether a user may sign up to vote"
      },
      "stateTreeDepth()": {
        "notice": "The state tree depth is fixed. As such it should be as large as feasible so that there can be as many users as possible.  i.e. 2 ** 23 = 8388608 this should also match the parameter of the circom circuits.IMPORTANT: remember to change the ballot tree depth in contracts/ts/genEmptyBallotRootsContract.ts file if we change the state tree depth!"
      },
      "tallyFactory()": {
        "notice": "Factory contract that deploy a Tally contract"
      }
    },
    "notice": "A contract which allows users to sign up, and deploy new polls",
    "version": 1
  },
  "storageLayout": {
    "storage": [
      {
        "astId": 736,
        "contract": "contracts/maci-contracts/MACIWrapper.sol:MACIWrapper",
        "label": "emptyBallotRoots",
        "offset": 0,
        "slot": "0",
        "type": "t_array(t_uint256)5_storage"
      },
      {
        "astId": 739,
        "contract": "contracts/maci-contracts/MACIWrapper.sol:MACIWrapper",
        "label": "nextPollId",
        "offset": 0,
        "slot": "5",
        "type": "t_uint256"
      },
      {
        "astId": 745,
        "contract": "contracts/maci-contracts/MACIWrapper.sol:MACIWrapper",
        "label": "polls",
        "offset": 0,
        "slot": "6",
        "type": "t_mapping(t_uint256,t_struct(PollContracts)777_storage)"
      },
      {
        "astId": 761,
        "contract": "contracts/maci-contracts/MACIWrapper.sol:MACIWrapper",
        "label": "lazyIMTData",
        "offset": 0,
        "slot": "7",
        "type": "t_struct(LazyIMTData)2912_storage"
      },
      {
        "astId": 8,
        "contract": "contracts/maci-contracts/MACIWrapper.sol:MACIWrapper",
        "label": "_owner",
        "offset": 0,
        "slot": "9",
        "type": "t_address"
      },
      {
        "astId": 228,
        "contract": "contracts/maci-contracts/MACIWrapper.sol:MACIWrapper",
        "label": "_polls",
        "offset": 0,
        "slot": "10",
        "type": "t_mapping(t_uint256,t_struct(PollData)223_storage)"
      },
      {
        "astId": 231,
        "contract": "contracts/maci-contracts/MACIWrapper.sol:MACIWrapper",
        "label": "treeDepths",
        "offset": 0,
        "slot": "11",
        "type": "t_struct(TreeDepths)3702_storage"
      },
      {
        "astId": 234,
        "contract": "contracts/maci-contracts/MACIWrapper.sol:MACIWrapper",
        "label": "coordinatorPubKey",
        "offset": 0,
        "slot": "12",
        "type": "t_struct(PubKey)3675_storage"
      },
      {
        "astId": 236,
        "contract": "contracts/maci-contracts/MACIWrapper.sol:MACIWrapper",
        "label": "verifier",
        "offset": 0,
        "slot": "14",
        "type": "t_address"
      },
      {
        "astId": 238,
        "contract": "contracts/maci-contracts/MACIWrapper.sol:MACIWrapper",
        "label": "vkRegistry",
        "offset": 0,
        "slot": "15",
        "type": "t_address"
      },
      {
        "astId": 242,
        "contract": "contracts/maci-contracts/MACIWrapper.sol:MACIWrapper",
        "label": "pollIds",
        "offset": 0,
        "slot": "16",
        "type": "t_mapping(t_address,t_uint256)"
      },
      {
        "astId": 247,
        "contract": "contracts/maci-contracts/MACIWrapper.sol:MACIWrapper",
        "label": "daoIdtoPolls",
        "offset": 0,
        "slot": "17",
        "type": "t_mapping(t_uint256,t_array(t_uint256)dyn_storage)"
      },
      {
        "astId": 279,
        "contract": "contracts/maci-contracts/MACIWrapper.sol:MACIWrapper",
        "label": "isPublicKeyRegistered",
        "offset": 0,
        "slot": "18",
        "type": "t_mapping(t_uint256,t_mapping(t_uint256,t_bool))"
      }
    ],
    "types": {
      "t_address": {
        "encoding": "inplace",
        "label": "address",
        "numberOfBytes": "20"
      },
      "t_array(t_string_storage)dyn_storage": {
        "base": "t_string_storage",
        "encoding": "dynamic_array",
        "label": "string[]",
        "numberOfBytes": "32"
      },
      "t_array(t_uint256)5_storage": {
        "base": "t_uint256",
        "encoding": "inplace",
        "label": "uint256[5]",
        "numberOfBytes": "160"
      },
      "t_array(t_uint256)dyn_storage": {
        "base": "t_uint256",
        "encoding": "dynamic_array",
        "label": "uint256[]",
        "numberOfBytes": "32"
      },
      "t_bool": {
        "encoding": "inplace",
        "label": "bool",
        "numberOfBytes": "1"
      },
      "t_bytes_storage": {
        "encoding": "bytes",
        "label": "bytes",
        "numberOfBytes": "32"
      },
      "t_mapping(t_address,t_uint256)": {
        "encoding": "mapping",
        "key": "t_address",
        "label": "mapping(address => uint256)",
        "numberOfBytes": "32",
        "value": "t_uint256"
      },
      "t_mapping(t_uint256,t_array(t_uint256)dyn_storage)": {
        "encoding": "mapping",
        "key": "t_uint256",
        "label": "mapping(uint256 => uint256[])",
        "numberOfBytes": "32",
        "value": "t_array(t_uint256)dyn_storage"
      },
      "t_mapping(t_uint256,t_bool)": {
        "encoding": "mapping",
        "key": "t_uint256",
        "label": "mapping(uint256 => bool)",
        "numberOfBytes": "32",
        "value": "t_bool"
      },
      "t_mapping(t_uint256,t_mapping(t_uint256,t_bool))": {
        "encoding": "mapping",
        "key": "t_uint256",
        "label": "mapping(uint256 => mapping(uint256 => bool))",
        "numberOfBytes": "32",
        "value": "t_mapping(t_uint256,t_bool)"
      },
      "t_mapping(t_uint256,t_struct(PollContracts)777_storage)": {
        "encoding": "mapping",
        "key": "t_uint256",
        "label": "mapping(uint256 => struct MACI.PollContracts)",
        "numberOfBytes": "32",
        "value": "t_struct(PollContracts)777_storage"
      },
      "t_mapping(t_uint256,t_struct(PollData)223_storage)": {
        "encoding": "mapping",
        "key": "t_uint256",
        "label": "mapping(uint256 => struct MACIWrapper.PollData)",
        "numberOfBytes": "32",
        "value": "t_struct(PollData)223_storage"
      },
      "t_mapping(t_uint256,t_uint256)": {
        "encoding": "mapping",
        "key": "t_uint256",
        "label": "mapping(uint256 => uint256)",
        "numberOfBytes": "32",
        "value": "t_uint256"
      },
      "t_string_storage": {
        "encoding": "bytes",
        "label": "string",
        "numberOfBytes": "32"
      },
      "t_struct(LazyIMTData)2912_storage": {
        "encoding": "inplace",
        "label": "struct LazyIMTData",
        "members": [
          {
            "astId": 2905,
            "contract": "contracts/maci-contracts/MACIWrapper.sol:MACIWrapper",
            "label": "maxIndex",
            "offset": 0,
            "slot": "0",
            "type": "t_uint40"
          },
          {
            "astId": 2907,
            "contract": "contracts/maci-contracts/MACIWrapper.sol:MACIWrapper",
            "label": "numberOfLeaves",
            "offset": 5,
            "slot": "0",
            "type": "t_uint40"
          },
          {
            "astId": 2911,
            "contract": "contracts/maci-contracts/MACIWrapper.sol:MACIWrapper",
            "label": "elements",
            "offset": 0,
            "slot": "1",
            "type": "t_mapping(t_uint256,t_uint256)"
          }
        ],
        "numberOfBytes": "64"
      },
      "t_struct(PollContracts)777_storage": {
        "encoding": "inplace",
        "label": "struct MACI.PollContracts",
        "members": [
          {
            "astId": 772,
            "contract": "contracts/maci-contracts/MACIWrapper.sol:MACIWrapper",
            "label": "poll",
            "offset": 0,
            "slot": "0",
            "type": "t_address"
          },
          {
            "astId": 774,
            "contract": "contracts/maci-contracts/MACIWrapper.sol:MACIWrapper",
            "label": "messageProcessor",
            "offset": 0,
            "slot": "1",
            "type": "t_address"
          },
          {
            "astId": 776,
            "contract": "contracts/maci-contracts/MACIWrapper.sol:MACIWrapper",
            "label": "tally",
            "offset": 0,
            "slot": "2",
            "type": "t_address"
          }
        ],
        "numberOfBytes": "96"
      },
      "t_struct(PollData)223_storage": {
        "encoding": "inplace",
        "label": "struct MACIWrapper.PollData",
        "members": [
          {
            "astId": 202,
            "contract": "contracts/maci-contracts/MACIWrapper.sol:MACIWrapper",
            "label": "id",
            "offset": 0,
            "slot": "0",
            "type": "t_uint256"
          },
          {
            "astId": 204,
            "contract": "contracts/maci-contracts/MACIWrapper.sol:MACIWrapper",
            "label": "name",
            "offset": 0,
            "slot": "1",
            "type": "t_string_storage"
          },
          {
            "astId": 206,
            "contract": "contracts/maci-contracts/MACIWrapper.sol:MACIWrapper",
            "label": "encodedOptions",
            "offset": 0,
            "slot": "2",
            "type": "t_bytes_storage"
          },
          {
            "astId": 208,
            "contract": "contracts/maci-contracts/MACIWrapper.sol:MACIWrapper",
            "label": "metadata",
            "offset": 0,
            "slot": "3",
            "type": "t_string_storage"
          },
          {
            "astId": 211,
            "contract": "contracts/maci-contracts/MACIWrapper.sol:MACIWrapper",
            "label": "pollContracts",
            "offset": 0,
            "slot": "4",
            "type": "t_struct(PollContracts)777_storage"
          },
          {
            "astId": 213,
            "contract": "contracts/maci-contracts/MACIWrapper.sol:MACIWrapper",
            "label": "startTime",
            "offset": 0,
            "slot": "7",
            "type": "t_uint256"
          },
          {
            "astId": 215,
            "contract": "contracts/maci-contracts/MACIWrapper.sol:MACIWrapper",
            "label": "endTime",
            "offset": 0,
            "slot": "8",
            "type": "t_uint256"
          },
          {
            "astId": 217,
            "contract": "contracts/maci-contracts/MACIWrapper.sol:MACIWrapper",
            "label": "numOfOptions",
            "offset": 0,
            "slot": "9",
            "type": "t_uint256"
          },
          {
            "astId": 220,
            "contract": "contracts/maci-contracts/MACIWrapper.sol:MACIWrapper",
            "label": "options",
            "offset": 0,
            "slot": "10",
            "type": "t_array(t_string_storage)dyn_storage"
          },
          {
            "astId": 222,
            "contract": "contracts/maci-contracts/MACIWrapper.sol:MACIWrapper",
            "label": "tallyJsonCID",
            "offset": 0,
            "slot": "11",
            "type": "t_string_storage"
          }
        ],
        "numberOfBytes": "384"
      },
      "t_struct(PubKey)3675_storage": {
        "encoding": "inplace",
        "label": "struct DomainObjs.PubKey",
        "members": [
          {
            "astId": 3672,
            "contract": "contracts/maci-contracts/MACIWrapper.sol:MACIWrapper",
            "label": "x",
            "offset": 0,
            "slot": "0",
            "type": "t_uint256"
          },
          {
            "astId": 3674,
            "contract": "contracts/maci-contracts/MACIWrapper.sol:MACIWrapper",
            "label": "y",
            "offset": 0,
            "slot": "1",
            "type": "t_uint256"
          }
        ],
        "numberOfBytes": "64"
      },
      "t_struct(TreeDepths)3702_storage": {
        "encoding": "inplace",
        "label": "struct Params.TreeDepths",
        "members": [
          {
            "astId": 3695,
            "contract": "contracts/maci-contracts/MACIWrapper.sol:MACIWrapper",
            "label": "intStateTreeDepth",
            "offset": 0,
            "slot": "0",
            "type": "t_uint8"
          },
          {
            "astId": 3697,
            "contract": "contracts/maci-contracts/MACIWrapper.sol:MACIWrapper",
            "label": "messageTreeSubDepth",
            "offset": 1,
            "slot": "0",
            "type": "t_uint8"
          },
          {
            "astId": 3699,
            "contract": "contracts/maci-contracts/MACIWrapper.sol:MACIWrapper",
            "label": "messageTreeDepth",
            "offset": 2,
            "slot": "0",
            "type": "t_uint8"
          },
          {
            "astId": 3701,
            "contract": "contracts/maci-contracts/MACIWrapper.sol:MACIWrapper",
            "label": "voteOptionTreeDepth",
            "offset": 3,
            "slot": "0",
            "type": "t_uint8"
          }
        ],
        "numberOfBytes": "32"
      },
      "t_uint256": {
        "encoding": "inplace",
        "label": "uint256",
        "numberOfBytes": "32"
      },
      "t_uint40": {
        "encoding": "inplace",
        "label": "uint40",
        "numberOfBytes": "5"
      },
      "t_uint8": {
        "encoding": "inplace",
        "label": "uint8",
        "numberOfBytes": "1"
      }
    }
  }
}