{
  "address": "0x5de12f55B17ac66aF1b234863776dB6586b7e666",
  "abi": [
    {
      "inputs": [
        {
          "internalType": "uint256",
          "name": "_balance",
          "type": "uint256"
        }
      ],
      "stateMutability": "payable",
      "type": "constructor"
    },
    {
      "inputs": [
        {
          "internalType": "address",
          "name": "_user",
          "type": "address"
        },
        {
          "internalType": "bytes",
          "name": "_erc20ContractAddressBytes",
          "type": "bytes"
        }
      ],
      "name": "getVoiceCredits",
      "outputs": [
        {
          "internalType": "uint256",
          "name": "",
          "type": "uint256"
        }
      ],
      "stateMutability": "view",
      "type": "function"
    }
  ],
  "transactionHash": "0x68f53d51b644968f5bf1d9072e904a034d0c5f691b701ad0e739aaeeb568606a",
  "args": [
    99
  ],
  "numDeployments": 1,
  "solcInputHash": "78cc46043e41c3f17b198a83253a93e8",
  "bytecode": "0x60a0601f6102ce38819003918201601f19168301916001600160401b03831184841017610057578084926020946040528339810103126100525751608052604051610260908161006e8239608051815050f35b600080fd5b634e487b7160e01b600052604160045260246000fdfe6080604081815260048036101561001557600080fd5b600091823560e01c63b36543a91461002c57600080fd5b346101d057806003193601126101d0576001600160a01b03823581811694908590036101ef57602491823567ffffffffffffffff978882116101eb57366023830112156101eb57818701359889116101d857602098610094601f8201601f19168b01836101f2565b80825289820192368783830101116101d4578a82819493898994018737830101528051810103126101d0575190811680910361018a578351956370a0823160e01b87528587015286868481845afa95861561019557908791839761019f575b50845163313ce56760e01b815291908290879082905afa8015610195578290610159575b60ff915016604d811161014857600a0a938415610138575050505191048152f35b634e487b7160e01b825260129052fd5b50634e487b7160e01b815260118452fd5b508681813d831161018e575b61016f81836101f2565b8101031261018a575160ff8116810361018a5760ff90610117565b5080fd5b503d610165565b84513d84823e3d90fd5b8281939298503d83116101c9575b6101b781836101f2565b8101031261018a5751948690856100f3565b503d6101ad565b8280fd5b8580fd5b5050634e487b7160e01b82525060418452fd5b8380fd5b80fd5b90601f8019910116810190811067ffffffffffffffff82111761021457604052565b634e487b7160e01b600052604160045260246000fdfea2646970667358221220f9706ef9943c91515f2698a32094dc54232a71c2790dfa99721679c3f40bc83164736f6c63430008140033",
  "devdoc": {
    "kind": "dev",
    "methods": {
      "constructor": {
        "params": {
          "_balance": "the balance to be returned by getVoiceCredits"
        }
      },
      "getVoiceCredits(address,bytes)": {
        "returns": {
          "_0": "balance"
        }
      }
    },
    "title": "ConstantInitialVoiceCreditProxy",
    "version": 1
  },
  "userdoc": {
    "kind": "user",
    "methods": {
      "constructor": {
        "notice": "creates a new ConstantInitialVoiceCreditProxy"
      },
      "getVoiceCredits(address,bytes)": {
        "notice": "Returns the constant balance for any new MACI's voter"
      }
    },
    "notice": "This contract allows to set a constant initial voice credit balance for MACI's voters.",
    "version": 1
  },
  "storageLayout": {
    "storage": [],
    "types": null
  }
}